:0400000002003B328D
:01000B0032C2
:0100130032BA
:01001B0032B2
:0100230032AA
:01002B0032A2
:030033000204BD07
:0300940002003631
:0500360012009780FE9E
:070097001200E312068412BF
:06009E0006471200F212F9
:0200A400055203
:0700A6001200E912063012FE
:0A00AD0000E39000641200B780EF3A
:0800B700AA82AB837C007D00EE
:0E00BF00C3EC9AED64808BF063F08095F050F6
:0500CD00147EE87F0332
:0500D2001EBEFF011F2E
:0B00D700EE4F70F70CBC00E00D80DD68
:0100E20022FB
:0600E30043FE02D291224F
:0600E900C29175FE002229
:0300EF00B29122A9
:0600F20043FE01D2902242
:0600F800C29075FE00221B
:0D00FE0090DE077421F090DE097410F09080
:06010B00DE0B7404F0227B
:0E01110090DE0EE4F090DE11E0FA30E1012203
:0E011F0090F014E0FA90F01BF0EA24DF500696
:06012D0090F01B7420F0AD
:0E01330090F01C7402F090F01BE0FBBB200269
:02014100800B31
:0B01430090F01C740AF090F010E4F043
:0E014E0090F01BE0FB90F014EAC39BF08B02D4
:0E015C008A031AEB602A90F011E0FBA3E0FC8E
:0E016A00A3E0FD8B828C838DF012070FFE90B8
:0E017800F01174012BF0E43CA3F0A3EDF09025
:06018600DE20EEF080D047
:0E018C0090DE0EE4F090F01CE090DE11F02208
:08019A00AA82AC837B1E7DF0FC
:0E01A2008B828D83E0FE603F8B828D83A3E015
:0E01B000FFB504288A071AEF7022BC020E8BDE
:0D01BE00828D83A3A3E0FF90F014F0800574
:0501CB0090F014EEF0BD
:0C01D00090F011EBF0A3EDF0A3E4F0229E
:0D01DC008B828D83E0FE2BFBE43DFD80B99E
:0101E90022F3
:0E01EA0090DE0EE4F090DE16E0FA90F01DF0CC
:0E01F80090F017E0FBC39A500590F01DEBF05D
:0C02060090F01DE0FA90F017EBC39AF0A6
:0E0212008A031AEB601F90F018E0FBA3E0FCDB
:0E02200090DE20E0FD8B828C83F090F018744D
:09022E00012BF0E43CA3F080DB9D
:0102370022A4
:0E023800AA8290F014E0FB90F01404F0EB2486
:0A02460015F582E434F0F583EAF0C8
:01025000228B
:0E025100AA8290F0077401F090DE0074804ADB
:01025F00F0AE
:0902600090DE00E0FA20E7F8222C
:0D02690090DE0E7405F090DE107408F09029
:0D027600DE12E04401F090DE0E7404F09002
:0C028300DE137408F090DE157401F02208
:08028F0090F0187408F0A3744C
:09029700F0F090F0177408F01269
:0A02A00001EA90F017E0FA60012275
:0E02AA0090F008E0FA30E71A90F00EE0FBA3A7
:0D02B800E0FC4B600890F0107401F0801F16
:0702C50090F010E4F0801836
:0E02CC0090F00EE0FBA3E0FC4B600890F010F9
:0502DA007402F0800534
:0502DF0090F010E4F0B6
:0D02E40090DE0EE4F090F010E0FB7008904A
:0702F100DE117448F08006E5
:0602F80090DE117440F0DD
:0802FE0090F0117415F0A374D7
:0C030600F0F0A3E4F090F014F074605AE2
:09031200FB6009BB20030203DAC1
:03031B0002040ECB
:08031E0053021FBA0002800F18
:06032600BA01030203A16D
:06032C00BA02030203C344
:0303320002040EB4
:0C03350090F009E0FA6017BA0502802180
:05034100BA0602802B4A
:05034600BA0802803836
:05034B00BA0902803F29
:0303500002040E96
:0D0353007582001202387582001202380215
:02036000040E89
:0D03620090F00AE0FAA3E08A821202510234
:02036F00040E7A
:0D03710090F00AE0FAA3E0FB8A828B831271
:05037E00019A02040ECB
:0A03830090F01AE0F5821202380231
:02038D00040E5C
:0D038F0090F00AE0FAA3E090F01AEAF012F4
:05039C00026902040EDD
:0C03A10090F009E0FA6005BA0A63800ED3
:0E03AD007582001202387582001202388053E9
:0803BB00758200120238804B2C
:0903C30090F009E0FA60028042AA
:0E03CC007582001202387582001202388034E9
:0A03DA0090F009E0FABA2002800555
:0503E400BA2127801280
:0A03E90090F0177407F090F01874FC
:0803F300B2F0A374F0F08013D6
:0A03FB0090F0147407F090F01174F4
:09040500B2F0A374F0F0A3E4F0DE
:09040E0090F010E0FABA0201229C
:0E04170090F00EE0FAA3E0FB90F014E0FC7D04
:0D04250000C3EA9CEB9D500590F014EAF036
:03043200020111B3
:0904350090F006E0FA20E001223B
:0D043E0090F006E054FEF090DE0EE4F09029
:0D044B00DE11E0FA30E40B90F010E4F090C8
:05045800DE117480F0CC
:0E045D00EA30E20D90F010E4F090DE11E0FBCA
:03046B0054FBF04F
:0E046E0090F010E0FBBB010BEA20E107C0029A
:05047C00120111D00285
:0E048100EA30E03790F010E0FA6005BA022D84
:02048F008003E8
:0304910002028FD5
:0B0494001201EA90F017E0FA700590EA
:04049F00F010E4F085
:0D04A30090DE0EE4F090F010E0FA7007908B
:0604B000DE117448F02289
:0604B60090DE117440F01D
:0104BC00221D
:0C04BD00C020C0E0C0F0C082C083C002BC
:0E04C900C003C004C005C006C007C000C001CB
:0D04D700C0D075D000C2E890DE02E0FA90BF
:0E04E400F006E04AF012043590DE06E0FA3031
:0504F200E2031200FE10
:0E04F700D0D0D001D000D007D006D005D00460
:0D050500D003D002D083D082D0F0D0E0D05F
:02051200203295
:0E05140090DE0E7405F090DE11E0FA30E00A81
:0A05220090F006E0FA20E5EA80F60A
:01052C0022AC
:0E052D0090DE0E7405F090DE11E04401F090B7
:0E053B00F000E0FAA3E0FB90F002EAF0A3EB80
:09054900F090F000E4F0A3F022B0
:0805520090F007E0FA700122AD
:0E055A0090F000E0FAA3E0FB4A700E90F00271
:0B056800E0FAA3E0FBBA4009BB00066C
:0605730012051402052D23
:01057900225F
:0A057A00AA8290F007E0FB70012256
:0D058400C002120514D00290DE2AEAF090A9
:0E059100F000E02401F0A3E03400F090F00050
:0E059F00E0FAA3E0FBBA4006BB000302052D04
:0105AD00222B
:0E05AE0090F004E0FAA3E0FB4A704290DE0EEB
:0E05BC007404F090DE14E0FA20E0047582FF73
:0105CA00220E
:0E05CB0090DE17E0FB7A0090DE16E0FC7D006B
:0E05D9004202ED420390F004EAF0A3EBF0EAD8
:0E05E7004B701190DE0E7404F090DE14E054A0
:0605F500FEF07582FF22FA
:0D05FB0090F004E024FFFAA3E034FFFB9031
:0D060800F004EAF0A3EBF090DE28E0FA9099
:0E061500F004E0FBA3E0FC4B700E90DE0E74D0
:0A06230004F090DE14E0FB54FEF03A
:03062D008A82229C
:0A0630001205AEAA828A03BAFF0A7F
:0A063A0090DE04E0FA20E4EE80F602
:030644008B822284
:0D06470043BE801202691200FE439A029029
:0E065400DE06E4F090DE04F090DE02F0C2E874
:010662002275
:0E06630090DE07E4F090DE09F090DE0BF0531D
:0E0671009AFD90DE06E4F090DE04F090DE02CA
:05067F00F053BE7F22D4
:0A06840090F010E4F090F006F00290
:02068E0006471D
:06069000AA82AB83ACF06E
:0E069600C002C003C004120630AD82D004D0F2
:0A06A40003D0028D06BD0A0280118A
:0E06AE008A828B838CF0EE1206F6A3AA82AB32
:0306BC008380D761
:0A06BF008A828B838CF0E40206F6B9
:0606C900AA82AB83ACF035
:0E06CF008A828B838CF012070FFD60188D82DB
:0506DD000ABA00010B48
:0E06E200C002C003C00412057AD004D003D0B9
:0306F0000280DCA9
:0306F300020552AB
:0E072F001201100102000020501D0180100078
:0E073D000102030109024300020100C032095B
:0E074B00040000010202010005240010010557
:0E075900240101010424020205240600010708
:0E07670005810308000A09040100020A0000CF
:0E077500000705040240000007058502400051
:0E078300000403090416034E006900670068B5
:0E079100007400730063006F007500740016A2
:0E079F000373007500620067005F0072006661
:0E07AD00007300700079000E03300030003041
:0807BB000030003000320000A4
:0707C30000C2010000000864
:0E07CA001201100102000020501D01801000DD
:0E07D8000102030109024300020100C03209C0
:0E07E6000400000102020100052400100105BC
:0E07F40024010101042402020524060001076D
:0E08020005810308000A09040100020A000033
:0E0810000007050402400000070585024000B5
:0E081E00000403090416034E00690067006819
:0E082C00007400730063006F00750074001606
:0E083A000373007500620067005F00720066C5
:0E084800007300700079000E033000300030A5
:08085600003000300032000008
:06006A00E478FFF6D8FD6A
:08004800792FE94401601B7AE5
:050050000290072F786B
:030055001E759382
:0A005800F0E493F2A308B8000205DB
:0800620093D9F4DAF27593FF63
:0E06F60020F71030F6118883A88220F507F651
:05070400A883758300CD
:0107090022CD
:03070A00F280F783
:02070D00F022D8
:080070007800E84400600A7901
:030078000075937D
:06007B00F0E4F309D8FCDB
:08008100781EE84400600C79D0
:0B0089000190F000E4F0A3D8FCD9FACD
:03003B00758120AC
:0A003E0012072BE582600302003672
:0E070F0020F71430F6148883A88220F507E640
:06071D00A8837583002291
:03072300E280F77A
:03072600E4932237
:02072900E022CC
:04072B0075820022B1
:00000001FF
