:06000000020089020CE77A
:01000B0032C2
:0100130032BA
:01001B0032B2
:0100230032AA
:01002B0032A2
:030033000208B808
:01003B003292
:01004300328A
:03004B000201BAF5
:01005300327A
:01005B003272
:01006300326A
:01006B003262
:01007300325A
:01007B003252
:03008300020DB2B9
:0301030002008671
:030086000201066E
:1A01060012015E12019212022E12023D120905120FFE1201AC120E2C80FB71
:20012000C011858111AF82E51124FDF8C3EF9650048F828007E51124FDF88682D01122C089
:1E01400011858111AF82E51124FDF8C3E69F50048F828007E51124FDF88682D01122EB
:20015E00AFBE74FB5FF5BEAFC674BF5FF5C6E5C630E6030080F853C6C0743F55C6FF60038C
:14017E000080F6744055BEFFBF400280030080F343BE042213
:0900E200E4F508F509F50AF50B37
:2001920075E40075E20075E54475E60075E70075DAED75DB02C2DED2B92275E40922E4F510
:2001B20008F509F50AF50B22C0E0C007C006C005C004C0D075D000AEDA7F00ACDB8C05E478
:2001D2002EFEED3FFFE4FDFC74EE2EFE74023FE43DE43C8EDAAEDA7F00ACDB8C05E42EFEBE
:2001F200ED3FFFE4FDFC74EE2E74023FFFE43DE43C8FDB74012508F508E43509F509E4351E
:1C0212000AF50AE4350BF50BAFE474DF5FF5E4D0D0D004D005D006D007D0E032AD
:0F022E0043FE02020237D29122C29122B29122E4
:0900EB00753900753A00753B00FF
:20023D0012024F12025575820012060B1202E20202F843FE01D2902243BE8022AFBE747F00
:20025D005FF5BE2290DE11E0FF74204FF090FFFF020277753900753A0022AE82AF83C0076B
:20027D00C00612028DD006D0078E828F8302029FAE82AF83EE4F6006BEFF06BFFF03753B4F
:20029D000022AE82AF83EE4F6006BEFF09BFFF06752B00752C00BE0405BF00028006BEFF84
:2002BD0009BFFF06752D00752E00BE0505BF00028006BEFF0FBFFF0C752F0075300075317B
:2002DD00007532002290DE077421F090DE097410F090DE0B7404F0439A022290DE06E4F029
:2002FD0090DE02F090DE04F0C2E822E58290DE0EF02290DE0EE0F58222AF82C00712030F4D
:20031D00AE82D007EE2E2420F582E434DEF583EFF02212030FE58225822420F582E434DE90
:20033D00F583E0F58222AF82E52CFE04F52CEE2400F582E434F0F583EFF022AF828F061F5B
:20035D00EE6023AC33AD34AE358C828D838EF012102EFC0533E4B5330205348C82C007125E
:20037D000316D00780D722AF828F061FEE602FAC36AD37AE38C007C006C005C00412032F8F
:20039D00AB82D004D005D006D0078C828D838EF0EB1210130536E4B536CF053780CB2285FA
:2003BD002C827420C0E0120120AF8215818F82C007120358D00790DE11E0FE74024EF0E532
:2003DD002CC39FF52CBF2000500F90DE11E0FF74084FF090000002028D22AF8290DE16E022
:2003FD00FE852B82C007C00612012015817420C0E0120120AE8215818E82C006120384D0EE
:20041D0006D00790DE11E0FD74404DF0E52BC39EFE8E2B7012EF600990DE11E0FF74084F6A
:20043D00F090000002028D2275820512030890DE11E0FF74014FF0AE2FAF308E318F327590
:20045D002F007530002275820412030890DE14E0FF74FE5FF02275820512030890DE11E0B5
:20047D00FF30E0030080F522AF82C007120473D0078F821203167401252FFEE43530FF8E85
:20049D002F8F30BE4006BF000302044522758200120485E52F4530700C7440B53106E4B54E
:2004BD0032028001221204730204451204850204AAC011858111C082C083C0F07C00E5119A
:2004DD0024FDF886038B021BEA602CC0038C020CA81108EA26FAE40836FB0886078A828BCE
:2004FD00838FF012102EF582C004C003120485D003D004D00380CE1204AA851181D0112252
:20051D00E52D452E703B75820412030890DE14E0FF20E00490FFFF2290DE17E0FF5307079C
:20053D008F067F0090DE16E0FD7C004207EC42068F2D8E2EE52D452E700712046390FFFFB5
:20055D002212032FAF82E52D24FFFDE52E34FFFE8D2D8E2EED4E7007C007120463D0077EB4
:20057D00008F828E832212051DAE82AF838E048F05BEFF06BFFF030080EC8C8222120583A4
:20059D00AE827F00C007C006120583AD82D006D0077C00ED2FF582EC3EF5832212059AAE5A
:2005BD0082AF838F048E057F007E00C007C006C005C00412059AAA82AB83D004D005D006A7
:2005DD00D0078A008B01E4FAFBE82EFEE93FFFEA3DFDEB3C8E828F838DF022AF8290DE0052
:2005FD00EFF090DE00E0FEB50701220080F4AF828F2175820412030890DE10E4F090DE1394
:20061D007408F075820512030890DE107408F090DE13E4F022852182020343C0118581117F
:20063D00058105810581AE82AC837F00A8110876420876F0087600A81108868208868308E6
:20065D0086F012102EFA70030206DDC002A81108740126FAE40836FD0886078A828D838FEE
:20067D00F012102EFAB504028004D0028036D0028E071EEF702EBC021CA81108740226FC17
:20069D00E40836FD0886078C828D838FF012102EFC8C2C80028A2CA811088633088634086C
:2006BD008635801FA8110886820886830886F012102EFFA81108EF26F6E40836F6020654DC
:2006DD00120261851181D01122753623753700753840752B087582000203F7E529452A608F
:2006FD002C74805523FFFEBE00028010BF80277533007534F0753500753B012275360275B2
:20071D0037F0753800AF298F2B753B022290DE11E0FF74084FF0221206E6E52B60012212A4
:20073D0006F8AF2374605FFE60030207DD53071FBF0002800EBF01028054BF02030207CD5A
:20075D000207DDAF24BF00028014BF0502801DBF06028021BF08028027BF09648027758269
:20077D00001203437582001203438054AF258F821205F8804B8525828526831206388040B8
:20079D00120632803BAF258F8212060B8032AF24BF00028005BF0A28800E75820012034396
:2007BD0075820012034380187582001203438010E4B5240C758200120343758200120343EF
:2007DD007401B53B13AF29852C82C007120120AF8215818F2C0203BC227582001203089076
:2007FD00DE11E0FF30E40F90DE11E0FF74804FF090000012027790DE11E0FF30E20F90DE52
:20081D0011E0FF74FB5FF09000001202777401B53B031203BC90DE11E0FF30E014E4B53B63
:20083D0002800B7402B53B097582010203F70207342275820412030890DE14E0FF30E60FAE
:20085D0090DE14E0FF74BF5FF09000040202772275820512030890DE11E0FF30E50F90DE5E
:20087D0011E0FF74DF5FF09000050202772290DE06E0FF30E2091202E290FFFF120277E535
:20089D0039FF30E0031207F6E53A30E40312084FE53930E50312086D020270C020C0E0C0D1
:2008BD00F0C082C083C007C006C005C004C003C002C001C000C0D075D00090DE02E04239EA
:2008DD0090DE04E0423AC2E812088BD0D0D000D001D002D003D004D005D006D007D083D07F
:0808FD0082D0F0D0E0D02032DF
:2010770012010002020000205104A71600010102030109022000020100C0320904000002D9
:201097000A0000000705040240000007058502400000040309103C036B00650069006E0004
:2010B700650063006800740065007200640065007500740073006300680065007200400097
:2010D70067006D00610069006C002E0063006F006D000E0343004300310031003100310027
:0910F70008033000300031000054
:0F00F400750C00750D00750E00750F007510006E
:2009050012094402090B7591FFD2A8439A012290DF3BE0FFBF0101220080F475E104020999
:200925001475E10290DF3BE0FFBF0D01220080F475E10390DF3BE0FFBF1301220080F4907F
:20094500DF0074FFF090DF01E4F090DF0214F090DF03E4F090DF04F090DF05F090DF0774A0
:2009650006F090DF08E4F090DF0C7499F090DF0DF4F090DF0E03F090DF0F7461F090DF1027
:20098500747EF090DF117415F090DF127407F090DF137430F090DF1403F090DF1514F090E7
:2009A500DF1A74B6F090DF1B7411F090DF1C74E9F090DF1D742AF090DF1EE4F090DF1F74CB
:2009C5001FF090DF247431F090DF257409F090DF2EE4F090DF177407F090DF18E4F090DFAE
:2009E500197491F090DF097426F090DF0A7430F090DF0B7470F090DF067402F090DF2D749C
:200A0500C0F022AF827C007D007E00EF24DC5003020BA1EF240A83F582EF242883F583E436
:200A2500736E778089929BA4ADB6BFC8D1DAE3ECF5FE071019222B333B434B535B636B73C0
:200A45007B838B939B0A0A0A0A0A0A0A0A0A0A0A0A0A0A0A0A0A0B0B0B0B0B0B0B0B0B0BC2
:200A65000B0B0B0B0B0B0B0B0B7C007DDF7E00020BA17C017DDF7E00020BA17C027DDF7EAD
:200A850000020BA17C037DDF7E00020BA17C047DDF7E00020BA17C057DDF7E00020BA17C0F
:200AA500077DDF7E00020BA17C087DDF7E00020BA17C0C7DDF7E00020BA17C0D7DDF7E0023
:200AC500020BA17C0E7DDF7E00020BA17C0F7DDF7E00020BA17C107DDF7E00020BA17C119D
:200AE5007DDF7E00020BA17C127DDF7E00020BA17C137DDF7E00020BA17C147DDF7E0002D0
:200B05000BA17C167DDF7E00020BA17C157DDF7E00020BA17C1A7DDF7E00020BA17C1B7DBF
:200B2500DF7E00020BA17C1C7DDF7E00806E7C1D7DDF7E0080667C1E7DDF7E00805E7C1FFF
:200B45007DDF7E0080567C247DDF7E00804E7C257DDF7E0080467C2D7DDF7E00803E7C2E6C
:200B65007DDF7E0080367C177DDF7E00802E7C187DDF7E0080267C197DDF7E00801E7C091F
:200B85007DDF7E0080167C0A7DDF7E00800E7C0B7DDF7E0080067C067DDF7E008C828D8391
:200BA5008EF022C011858111AF827E00C007C006120920D006D00790DF06EFF0750C00C0EF
:200BC500061209261201B0D00690F0CDE0FF7D00C3ED950C502BED700DE50C24FD5007EFF9
:200BE50070047EBB8046ED24CBF582E434F0F583E0FC0DED24FD50D8EDB50CD4EC70D1805C
:200C05002BE50C70CBE51124FAF8E608460846084660BDE51124FAF8C3E6950808E69509A1
:200C250008E6950A08E6950B50A67EAAC006120920D006EE700FC00C90F0CB75F0001204A0
:200C4500CE158180058E821204C8D01122C011858111AF82750D00750E00750F00C007123A
:200C65000920D00790DF06EFF0E50D243F4007120583AF8280027F00AE0D050DEE248BF554
:200C850082E434F1F583EFF0EF70DE120935120914E51124FDF886078F061FEE6041E511DC
:200CA50024F9F8E60846084608466021C0071201B0D007E51124F9F8C3E50896E50908968B
:200CC500E50A0896E50B089650030080E6750E00750F00C007120935120914D00780B9D00E
:200CE5001122C020C0E0C0F0C082C083C007C006C005C004C003C002C001C000C0D075D016
:200D05000090DF3BE0FFBF0D028008BF13028059020D95AFD9E50C7035E51004F582C00749
:200D25007401C0E012013F858210158190F0CBE510F090DF3AE0FE7401C0E08E8212013F6C
:200D4500AE821581D00790F0CCEEF0750C027440250C4012AE0C050CEE24CBF582E434F0E6
:200D6500F583EFF0802A008027C3E50E950D5013AF0E050EEF248BF582E434F1F583E0F5D0
:200D8500D9800D75D900050F7402B50F03120920D0D0D000D001D002D003D004D005D006A9
:200DA500D007D083D082D0F0D0E0D02032C0E0C007C0D075D000E5E930E70A75E104AFE903
:200DC500747F5FF5E9E5E930E60A75E104AFE974BF5FF5E9E5E930E507AFE974DF5FF5E97C
:200DE500E5E930E407AFE974EF5FF5E9E5E930E307AFE974F75FF5E9E5E930E207AFE974B2
:200E0500FB5FF5E9E5E930E107AFE974FD5FF5E9E5E9FF30E007AFE974FE5FF5E9759B002E
:070E2500D0D0D007D0E0326D
:201100000000000000000000000000000000000000000000000000000000000000000000CF
:201120000000000000000000000000000000000000000000000000000000000000000000AF
:2011400000000000000000000000000000000000000000000000000000000000000000008F
:2011600000000000000000000000000000000000000000000000000000000000000000006F
:2011800000000000000000000000000000000000000000000000000000000000000000004F
:2011A00000000000000000000000000000000000000000000000000000000000000000002F
:2011C00000000000000000000000000000000000000000000000000000000000000000000F
:2011E0000000000000000000000000000000000000000000000000000000000000000000EF
:201200000000000000000000000000000000000000000000000000000000000000000000CE
:201220000000000000000000000000000000000000000000000000000000000000000000AE
:2012400000000000000000000000000000000000000000000000000000000000000000008E
:2012600000000000000000000000000000000000000000000000000000000000000000006E
:200E2C00120583AF82BF00028019BF01028024BF0202802FBF0302802DBF3202802BBF6378
:200E4C002E80297406C0E090104E75F0801204CE158122741DC0E090105575F0801204CE37
:200E6C00158122020E8B020E99020EC0020FA87403C0E090107375F0801204CE1581221224
:200E8C000583120A0812102EF5820204C8120583AF82C007120583AE82D0078F82C00612E9
:200EAC000A08AC82AD83AFF0D0068C828D838FF0EE021013120583AF82C0071205B9AB8202
:200ECC00AC83ADF0FED007C003C004C005C0068F82120BA8E58124FCF58122120583AF8294
:200EEC00C007120583AE82C0061205B9AA82AB83ACF0FDD006D007C002C003C004C005C051
:200F0C00068F82120C52E58124FBF58122C011E581F5112405F581120583AF828F03C00325
:200F2C00120583AA82C0021205B9A81108A68208A68308A6F008F6120583AE82E5112405AE
:200F4C00F8A6061205B9AC82AD83AEF0FFD002D003C007C006C005C004A81108E6C0E0080C
:200F6C00E6C0E008E6C0E008E6C0E0C0028B82120C52E58124FBF581D004D005D006D00733
:200F8C00C004C005C006C007E5112405F88682120BA8E58124FC851181D01122C011E58174
:200FAC00F5112404F5811205B9AC82AD83AEF0FFA81108A60408A60508A60608A607A81176
:200FCC000808080886078F821204C8A81108080886068E821204C8A811080886058D8212A9
:120FEC0004C8A8110886048C821204C8851181D01122D6
:20104E00434331313131006B65696E65636874657264657574736368657240676D61696C05
:09106E002E636F6D004E2F41004E
:150FFE00758805759800759B0075C00075E800D2AF22C2AF22F7
:0600B800E478FFF6D8FD1C
:200096007909E94402601B7A0390107778427593F0E493F2A308B800020593D9F4DAF27564
:0200B60093FFB6
:1B10130020F71130F6138883A88220F509F6A8837583002280FEF280F5F022DC
:2000BE007800E84400600A79007593F0E4F309D8FC7842E84400600C790190F000E4F0A32C
:0400DE00D8FCD9FA77
:0D00890075813B12104AE58260030200867B
:1C102E0020F71430F6148883A88220F507E6A88375830022E280F7E49322E022D1
:04104A007582002289
:00000001FF
