:040000000200533275
:01000B0032C2
:0100130032BA
:01001B0032B2
:0100230032AA
:01002B0032A2
:03003300020803BD
:01003B003292
:01004300328A
:03004B0002016A45
:0300BE0002004EEF
:05004E001200C180FE5C
:0700C10012011612014212A8
:0600C80001D61201E51251
:0500CE0008C312015CF3
:0500D30012085080FB43
:0E09110012010002020000205104A71600018E
:0E091F000102030109023000020100C032098A
:0E092D0004000001020201000705810308001A
:0E093B000A09040100020A0000000705040278
:0E09490040000007058502400000040309106D
:0E0957003C036B00650069006E0065006300E4
:0E096500680074006500720064006500750093
:0E0973007400730063006800650072004000AD
:0E09810067006D00610069006C002E006300CD
:0E098F006F006D000E03430043003100310085
:0D099D00310031000803300030003100004F
:0800D800C00C85810CAA82A86E
:0C00E0000C181818C3EA9650048A82809D
:0100EC00070C
:0700ED00A80C181818868208
:0300F400D00C220B
:0800F700C00C85810CAA82A84F
:0C00FF000C181818C3E69A50048A82807E
:01010B0007EC
:07010C00A80C1818188682E8
:03011300D00C22EB
:0601160053BEFB53C6BFFF
:08011C00E5C630E6030080F89F
:0301240053C6C0FF
:0A012700743F55C6FA60030080F62D
:0A013100744055BEFABA4002800384
:03013B000080F34E
:04013E0043BE042296
:0600AC00E4F508F509F57A
:0300B2000AF50B41
:0E01420075E40075E20075E54475E60075E7AA
:0C0150000075DAED75DB02C2DED2B922C8
:04015C0075E409221B
:06016000E4F508F509F5C5
:040166000AF50B2269
:0E016A00C0E0C002C003C004C005C0D075D004
:0E01780000AADA7B00ADDBE42AFAED3BFBE4E3
:0E018600FCFD74EE2AFA74023BE43CE43D8A70
:0E019400DAAADA7B00ADDBE42AFAED3BFBE4ED
:0E01A200FCFD74EE2A74023BFBE43CE43D8B52
:0901B000DB74012508F508E435B3
:0501B90009F509E43521
:0501BE000AF50AE4351A
:0A01C3000BF50B53E4DFD0D0D0059C
:0901CD00D004D003D002D0E032CE
:0601D60043FE020201DFFE
:0301DC00D291229B
:0301DF00C29122A8
:0301E200B29122B5
:0700B500753B00753C00756E
:0200BC003D0005
:0A01E5001201F71201FD75820012ED
:0601EF0004F91202940263
:0201F50002AA5C
:0601F70043FE01D290223C
:0401FD0043BE80225B
:0402010053BE7F2247
:0D02050090DE11E04420F090FFFF0202198E
:07021200753B00753C002262
:0E021900AA82AB83C002C00312022FD003D012
:0702270002EA4B7002F53DF5
:01022E0022AD
:0C022F00AA82AB83BA0005BB0002801855
:08023B00BA0105BB00028017A7
:08024300BA0405BB000280169D
:08024B00BA0527BB0024801551
:07025300752B00752C002241
:07025A00752D00752E002236
:07026100752F00753000222B
:0702680075310075320075CD
:06026F003300753400228B
:07027500752B00752C0075CC
:06027C002D00752E007537
:060282002F00753000752D
:0602880031007532007523
:06028E003300753400226C
:0D02940090DE077423F090DE097410F090E6
:0902A100DE0B7404F0439A022202
:0E02AA0090DE06E4F090DE02F090DE04F0C27A
:0202B800E8223A
:0702BA00E58290DE0EF02248
:0702C10090DE0EE0F5822241
:0E02C800AA82C0021202C1AB82D002EB2B242C
:0B02D60020F582E434DEF583EAF0221C
:0E02E1001202C1E58225822420F582E434DE7B
:0602EF00F583E0F5822218
:0A02F500AA82E52CFB04F52CEB2493
:0A02FF0000F582E434F0F583EAF024
:0103090022D1
:02030A00AA82C5
:0A030C008A031AEB6023AB35AC3610
:0C031600AD378B828C838DF01208F1FB58
:070322000535E4B5350205C5
:01032900369D
:0B032A008B82C0021202C8D00280D7F4
:0103350022A5
:02033600AA8299
:0A0338008A031AEB602FAB38AC39D2
:0B034200AD3AC002C003C004C00512A9
:0E034D0002E1AE82D005D004D003D0028B8234
:0C035B008C838DF0EE1208D80538E4B554
:0603670038CF053980CB00
:01036D00226D
:0C036E00852C827420C0E01200D8AA8206
:0E037A0015818A82C00212030AD00290DE11A1
:0A038800E0FB4402F0E52CC39AF5F7
:040392002CBA200061
:0C039600500B90DE11E0FA4408F0753DB9
:0103A200005A
:0103A3002237
:0C03A400AA82C00290DE16E0C0E0852BAB
:0E03B000821200D815817420C0E01200D8AB74
:0E03BE008215818B82C003120336D003D00259
:0C03CC0090DE11E0FC4440F0E52BC39BE8
:0C03D800FB8B2B700EEA600890DE11E039
:0403E400FA4408F0DF
:0303E800753D0060
:0103EB0022EF
:0E03EC007582051202BA90DE11E04401F0AAFB
:0403FA0031AB328A67
:0403FE00338B347594
:06040200310075320022FA
:0E0408007582041202BA90DE14E054FEF02257
:060416007582051202BA16
:0B041C0090DE11E0FA30E0030080F5F4
:0104270022B2
:0E042800AA82C002120416D0028A821202C8F2
:0A04360074012531FAE43532FB8A27
:0A044000318B32BA4006BB00030204
:02044A0003ECC1
:01044C00228D
:09044D00E5314532700C7440B534
:080456003306E4B53402800115
:01045E00227B
:06045F001204160203EC7A
:0A046500E52F4530703B758204124C
:0E046F0002BA90DE14E0FA20E00490FFFF22B3
:0D047D0090DE17E0FA5302078A037A009020
:0C048A00DE16E0FC7D004202ED42038A19
:040496002F8B30E593
:06049A002F45307007122F
:0604A000040890FFFF229A
:0B04A6001202E1AA82E52F24FFFBE513
:0704B1003034FFFC8B2F8C9F
:0C04B80030EB4C7007C002120408D002A8
:0704C4007B008A828B83227A
:0E04CB00120465AA82AB838A048B05BAFF0671
:0604D900BBFF030080ECF4
:0304DF008C8222EA
:0704E200AA8290DE00EAF09F
:0A04E90090DE00E0FBB50202800384
:0304F3000080F393
:0304F6000201E21E
:0B04F900AA828A217582011202BA90CB
:0E050400DE107401F090DE137401F0758204B5
:0E0512001202BA90DE10E4F090DE137408F0CE
:0D0520007582051202BA90DE107408F0908A
:05052D00DE13E4F022E2
:060532008521820202F5A2
:0A053800C00C85810C0581058105CA
:0B05420081AA82AD837B00A80C087624
:07054D00D90876F0087600E2
:0C055400A80C0886820886830886F01236
:0805600008F1FF70030205DD44
:0C056800C007A80C08740126FFE4083648
:0E057400FC0886038F828C838BF01208F1FF47
:05058200B50502800434
:04058700D0078036E3
:0C058B00D0078A031AEB702EBD021CA8DA
:0C0597000C08740226FBE40836FC088601
:0C05A300058B828C838DF01208F1FB8B1D
:0305AF002C80029B
:0205B2008F2C8C
:0705B400A80C08863508863B
:0605BB0036088637801FA0
:0C05C100A80C0886820886830886F012C9
:0C05CD0008F1FBA80C08EB26F6E4083649
:0405D900F6020554CD
:0305DD0012020502
:0605E000850C81D00C2205
:0405E60075382375CC
:0605EA003900753A40756E
:0805F0002B087582000203A430
:0905F800E529452A6028748055AC
:0906010023FA6010BA8026753559
:03060A0000753642
:05060D00F075370075D7
:030612003D012285
:0406150075380075BF
:0306190039F07540
:05061C003A00AA298A42
:050621002B753D0222D3
:0806260090DE11E0FA4408F037
:01062E0022A9
:08062F001205E6E52B60012233
:0C0637001205F8AA2374605AFB6003024D
:0206430006D6D9
:0806450053021FBA0002800EEF
:05064D00BA0102805219
:06065200BA02030206C615
:030658000206D6C1
:07065B00AA24BA000280147A
:05066200BA0502801D35
:05066700BA060280202C
:05066C00BA080280261F
:05067100BA09628026B9
:0E0676007582001202F57582001202F58052A4
:080684008525821204E2804A80
:07068C0085258285268312FB
:040693000538803F67
:05069700120532803A5B
:08069C008525821204F9803269
:0706A400AA24BA0002800540
:0506AB00BA0A28800ED0
:0E06B0007582001202F57582001202F58018A4
:0806BE007582001202F58010A4
:0C06C600E4B5240C7582001202F5758268
:0406D200001202F51B
:0806D6007401B53D13AA29854A
:0C06DE002C82C0021200D8AA8215818A6A
:0406EA002C02036E6D
:0106EE0022E9
:0E06EF007582001202BA90DE11E0FA30E40DBE
:0D06FD0090DE11E04480F090000012021920
:0E070A0090DE11E0FA30E20D90DE11E054FBBB
:07071800F09000001202192D
:08071F007401B53D0312036EE5
:0C07270090DE11E0FA30E014E4B53D0271
:02073300800B39
:0B0735007402B53D097582010203A4A7
:0307400002062F7F
:010743002293
:0E0744007582011202BA90DE11E0FA30E50D66
:0D07520090DE11E054DFF09000011202195A
:0E075F0090DE14E0FA30E60D90DE14E054BF98
:07076D00F0900001020219E7
:010774002262
:0E0775007582041202BA90DE14E0FA30E60D2E
:0D07830090DE14E054BFF090000402021953
:010790002246
:0E0791007582051202BA90DE11E0FA30E50D15
:0D079F0090DE11E054DFF090000502021919
:0107AC00222A
:0E07AD001202C1AA8290DE06E0FB30E20DC00F
:0C07BB000212029490FFFF120219D002FB
:0C07C700E53B30E007C0021206EFD00254
:0C07D300E53B30E107C002120744D002F1
:0C07DF00E53C30E407C002120775D002B0
:0C07EB00E53B30E507C002120791D00288
:0C07F700C002120212D0028A820202BA72
:0C080300C020C0E0C0F0C082C083C00272
:0E080F00C003C004C005C006C007C000C00181
:0C081D00C0D075D00090DE02E0423B909D
:0C082900DE04E0423CC2E81207ADD0D073
:0E083500D001D000D007D006D005D004D003EB
:0C084300D002D083D082D0F0D0E0D020D2
:01084F003276
:0E09AA0012010002020000205104A7160001F5
:0E09B8000102030109023000020100C03209F1
:0E09C600040000010202010007058103080081
:0E09D4000A09040100020A00000007050402DF
:0E09E2004000000705850240000004030910D4
:0E09F0003C036B00650069006E00650063004B
:0E09FE006800740065007200640065007500FA
:0E0A0C00740073006300680065007200400013
:0E0A1A0067006D00610069006C002E00630033
:0E0A28006F006D000E034300430031003100EB
:0D0A360031003100080330003000310000B5
:0E0850001204CBAA82BA394D758248120428D0
:0E085E0075826512042875826C12042875825A
:0E086C006C12042875826F1204287582201207
:0C087A00042875825712042875826F1242
:0C088600042875827212042875826C121E
:0C0892000428758264120428758221126B
:07089E00042812044D801B29
:0E08A50075825412042875826512042875822B
:0B08B3007312042875827412042812CE
:0208BE00044DE7
:0308C0000201E250
:0E0A430012010002020000205104A71600015B
:0E0A51000102030109023000020100C0320957
:0E0A5F000400000102020100070581030800E7
:0E0A6D000A09040100020A0000000705040245
:0E0A7B0040000007058502400000040309103A
:0E0A89003C036B00650069006E0065006300B1
:0E0A9700680074006500720064006500750060
:0E0AA50074007300630068006500720040007A
:0E0AB30067006D00610069006C002E0063009A
:0E0AC1006F006D000E03430043003100310052
:0D0ACF00310031000803300030003100001C
:0E08C300758805759800759B0075C00075E876
:0408D10000D2AF2280
:0308D500C2AF228D
:06008200E478FFF6D8FD52
:0800600079CBE94401601B7A31
:0500680002900911786F
:03006D0040759348
:0A007000F0E493F2A308B8000205C3
:08007A0093D9F4DAF27593FF4B
:0E08D80020F71030F6118883A88220F507F66D
:0508E600A883758300EA
:0108EB0022EA
:0308EC00F280F7A0
:0208EF00F022F5
:080088007800E84400600A79E9
:0300900000759365
:06009300F0E4F309D8FCC3
:080099007840E84400600C7996
:0B00A1000190F000E4F0A3D8FCD9FAB5
:0300530075813D77
:0A00560012090DE582600302004E5E
:0E08F10020F71430F6148883A88220F507E65D
:0608FF00A88375830022AE
:03090500E280F796
:03090800E4932253
:02090B00E022E8
:04090D0075820022CD
:00000001FF
