:0600000002008B0209E57D
:01000B0032C2
:0100130032BA
:01001B0032B2
:0100230032AA
:01002B0032A2
:0300330002078C35
:01003B003292
:01004300328A
:03004B000201C4EB
:01005300327A
:01005B003272
:01006300326A
:01006B003262
:01007300325A
:01007B003252
:03008300020A4826
:0301110002008663
:0500860012011480FED0
:0701140012017012019C12A0
:06011B000230120A9612E8
:0601210001B612023F12BC
:0B01270008029003E8E4F5F002090C68
:0E0AE40012010002020000205104A7160001BA
:0E0AF2000102030109023000020100C03209B6
:0E0B0000040000010202010007058103080045
:0E0B0E000A09040100020A00000007050402A3
:0E0B1C00400000070585024000000403091098
:0E0B2A003C036B00650069006E00650063000F
:0E0B38006800740065007200640065007500BE
:0E0B46007400730063006800650072004000D8
:0E0B540067006D00610069006C002E006300F8
:0E0B62006F006D000E034300430031003100B0
:0D0B7000310031000803300030003100007A
:08013200C00F85810FAA82A80D
:0C013A000F181818C3EA9650048A82803F
:0101460007B1
:07014700A80F1818188682AA
:03014E00D00F22AD
:08015100C00F85810FAA82A8EE
:0C0159000F181818C3E69A50048A828020
:010165000792
:07016600A80F18181886828B
:03016D00D00F228E
:0601700053BEFB53C6BFA5
:08017600E5C630E6030080F845
:03017E0053C6C0A5
:0A018100743F55C6FA60030080F6D3
:0A018B00744055BEFABA400280032A
:030195000080F3F4
:0401980043BE04223C
:0600E400E4F508F509F542
:0300EA000AF50B09
:0E019C0075E40075E20075E54475E60075E750
:0C01AA000075DAED75DB02C2DED2B9226E
:0401B60075E40922C1
:0601BA00E4F508F509F56B
:0401C0000AF50B220F
:0E01C400C0E0C002C003C004C005C0D075D0AA
:0E01D20000AADA7B00ADDBE42AFAED3BFBE489
:0E01E000FCFD74EE2AFA74023BE43CE43D8A16
:0E01EE00DAAADA7B00ADDBE42AFAED3BFBE493
:0E01FC00FCFD74EE2A74023BFBE43CE43D8BF8
:09020A00DB74012508F508E43558
:0502130009F509E435C6
:050218000AF50AE435BF
:0A021D000BF50B53E4DFD0D0D00541
:09022700D004D003D002D0E03273
:0602300043FE0202023948
:03023600D2912240
:03023900C291224D
:03023C00B291225A
:0600ED00E4F52BF52CF5F3
:0500F3002DE4F52EF5DF
:0500F8002FF530E4F5D6
:0500FD0031F532E4F5CD
:0401020033F5347528
:020106003500C2
:0A023F0012024E12026E75820012C8
:05024900029402027E98
:09024E0043BE8043FE01D2902260
:06025700E4F531F532F57B
:04025D0033F534F54C
:02026100352244
:0B02630090DE11E04420F0753503220E
:0E026E0090DE02E4F090DE04F090DE06F0C2B6
:02027C00E82276
:0D027E0090DE077423F090DE097410F090FC
:09028B00DE0B7404F0439A022218
:0B029400AA828A217582011207859062
:0E029F00DE107401F090DE137401F07582041D
:0E02AD0012078590DE10E4F090DE137408F066
:0D02BB0075820512078590DE107408F09022
:0502C800DE13E4F0224A
:0602CD008521820204AD50
:0702D300AA8290DE00EAF0B0
:0902DA0090DE00E0FBB5020122F8
:0302E3000080F4A4
:0A02E600C00F85810F058105810519
:0B02F00081AA82AD837B00A80F087676
:0702FB00990876F008760077
:0C030200A80F0886820886830886F01287
:08030E000AC4FF700302039111
:0C031600C007A80F08740126FFE4083699
:0E032200FC0886038F828C838BF0120AC4FFC6
:05033000B50502800488
:04033500D007803C31
:0C033900D0078A031AEB7034BD021FA825
:0C0345000F08740226FBE40836FC088652
:0C035100058B828C838DF0120AC4FB8B9C
:06035D003175320080053D
:050363008F317532002E
:07036800A80F08862B088690
:06036F002C08862D801F02
:0C037500A80F0886820886830886F01214
:0C0381000AC4FBA80F08EB26F6E40836BF
:04038D00F60203026F
:03039100120263F2
:06039400850F81D00F224D
:04039A00752E237524
:06039E002F0075304075D0
:0903A4003308E4F534758200020F
:0203AD0005AD9C
:0903AF00E529452A602A748055F5
:0903B80023FA6010BA8028752BAD
:0303C10032752C66
:0503C400F1752D00752C
:0303C900350122D9
:0403CC00752E3275E3
:0303D0002FF17595
:0403D3003000852948
:0303D70033852A41
:0503DA0034753502221C
:0803DF0090DE11E0FA4408F081
:0103E70022F3
:0603E80012039AE5334503
:0403EE003460012254
:0C03F2001203AFAA2374605AFB600302E0
:0203FE00049168
:0804000053021FBA0002800E36
:05040800BA0102805260
:06040D00BA0203020481A3
:030413000204914F
:07041600AA24BA00028014C1
:05041D00BA0502801D7C
:05042200BA0602802073
:05042700BA0802802666
:05042C00BA0962802600
:0E0431007582001204AD7582001204AD805277
:08043F008525821202D3804AD8
:070447008525828526831242
:04044E0002E6803F03
:050452001202CD803A0A
:08045700852582120294803217
:07045F00AA24BA0002800587
:05046600BA0A28800E17
:0E046B007582001204AD7582001204AD801877
:080479007582001204AD801031
:0C048100E4B5240C7582001204AD7582F5
:04048D00001204ADA8
:080491007401B53516AA298596
:0C0499003182C002120132AA8215818A51
:0504A500317532000278
:0204AA00055FEC
:0104AC00222D
:0704AD00AA82AB31AC32055D
:0604B40031E4B531020540
:0104BA00320F
:0A04BB00EB2432F582EC34F1F583F6
:0304C500EAF02238
:0E04C800AA8290DE0EE025E02420F582E434C6
:0604D600DEF583EAF022CE
:0E04DC0090DE0EE025E02420F582E434DEF50B
:0504EA0083E0F5822211
:0404EF00AA827B0062
:0A04F300C3EB9A5028AC2BAD2CAEE1
:0C04FD002D8C828D838EF0120AC4FC0549
:060509002BE4B52B0205F6
:01050F002CBF
:0E0510008C82C002C0031204C8D003D0020BBC
:02051E0080D388
:0105200022B8
:04052100AA827B002F
:0A052500C3EB9A5034AC2EAD2FAE9C
:0C052F0030C002C003C004C005C00612AA
:0E053B0004DCAF82D006D005D004D003D0027D
:0C0549008C828D838EF0EF120AAB052E21
:06055500E4B52E02052FA3
:03055B000B80C74B
:01055E00227A
:0C055F008531827420C0E0120132AA82B3
:02056B001581F8
:0B056D0090DE11E0FB30E1030080F5A0
:0E0578008A82C0021204EFD00290DE11E0FB76
:0A0586004402F0C3E5319420E53291
:0D0590009400500B90DE11E0FB4408F07564
:02059D00350027
:09059F007B00E531C39AF531E55A
:0505A800329BF5322238
:0C05AD00AA82853382C0027420C0E012D4
:0E05B9000132AB82158190DE16E0C0E08B822D
:0E05C700120132AB8215818B82C00312052116
:0E05D500D003D00290DE11E0FC4440F0C3E5FC
:0A05E300339420E5349400501E8B81
:0A05ED00047D00E533C39CFCE534F7
:0E05F7009DFD4C700EEA600890DE11E0FA44A3
:0206050008F0FB
:0306070075350046
:09060A007A00E533C39BF533E5EA
:05061300349AF53422C9
:0C0618008531827440C0E0120132AA82D9
:0406240015817B00C1
:0B06280090DE11E0FC30E0030080F5E4
:0E0633008A82C002C0031204EFD003D00290EE
:0C064100DE11E0FC4401F0C3E531944000
:09064D00E53294005003753500FC
:07065600E531C39AF531E51F
:05065D00329BF5322282
:0C0662008533827440C0E0120132AA828D
:0E066E0015817B008A82C002C003120521D0D4
:0D067C0003D00290DE14E0FC54FEF0C3E554
:0A068900339440E5349400500375EB
:02069300350030
:07069500E533C39AF533E5DC
:05069C00349BF534223F
:0E06A10075820012078590DE11E0FA30E40A3F
:0A06AF0090DE11E04480F0120257C3
:0E06B90090DE11E0FA30E20A90DE11E054FB10
:0406C700F0120257D4
:0806CB007401B5350312055F4F
:0C06D30090DE11E0FA30E016E4B53502CC
:0206DF00800792
:0706E1007402B5350B800324
:0306E8000203E822
:0606EB007582010205AD5D
:0106F10022E6
:0606F2007582010207857C
:0E06F80075820512078590DE11E0FA30E50AE2
:0A07060090DE11E054DFF0120257FC
:080710007401B535030206185F
:0107180022BE
:0E07190075820412078590DE14E0FA30E60ABD
:0A07270090DE14E054BFF0120257F8
:0C07310090DE14E0FA30E04BE535700B70
:04073D00752E32756E
:030741002FF1F5A0
:0407440030753502D5
:0D07480090DE17E0FA5302078A037A009052
:0C075500DE16E0FC7D00EA4CF533EB4DB5
:05076100F534E533252D
:0407660031F531E553
:04076A00343532F5FB
:05076E0032120662E5F5
:0507730035700E752B2E
:0307780032752CAB
:04077B00F1F52D75F2
:05077F0035010206F83F
:010784002252
:07078500E58290DE0EF02278
:0C078C00C020C0E0C0F0C082C083C002EA
:0E079800C003C004C005C006C007C000C001F9
:0E07A600C0D075D00090DE06E0FA30E20312FB
:0207B400027EC3
:0B07B60090DE02E0FA30E0031206A122
:0B07C10090DE02E0FA30E1031206F2C5
:0B07CC0090DE04E0FA30E4031207198D
:0B07D70090DE02E0FA30E5031206F8A5
:0E07E20012026ED0D0D001D000D007D006D0C9
:0E07F00005D004D003D002D083D082D0F0D048
:0407FE00E0D02032F5
:0E0B7D0012010002020000205104A716000120
:0E0B8B000102030109023000020100C032091C
:0E0B99000400000102020100070581030800AC
:0E0BA7000A09040100020A000000070504020A
:0E0BB5004000000705850240000004030910FF
:0E0BC3003C036B00650069006E006500630076
:0E0BD100680074006500720064006500750025
:0E0BDF0074007300630068006500720040003F
:0E0BED0067006D00610069006C002E0063005F
:0E0BFB006F006D000E03430043003100310017
:0D0C090031003100080330003000310000E0
:0E0C16000000000000000000000000000000D0
:0E0C24000000000000000000000000000000C2
:0E0C32000000000000000000000000000000B4
:0E0C40000000000000000000000000000000A6
:0E0C4E00000000000000000000000000000098
:0E0C5C0000000000000000000000000000008A
:0E0C6A0000000000000000000000000000007C
:0E0C780000000000000000000000000000006E
:0E0C8600000000000000000000000000000060
:0E0C9400000000000000000000000000000052
:0E0CA200000000000000000000000000000044
:0E0CB000000000000000000000000000000036
:0E0CBE00000000000000000000000000000028
:0E0CCC0000000000000000000000000000001A
:0E0CDA0000000000000000000000000000000C
:0E0CE8000000000000000000000000000000FE
:0E0CF6000000000000000000000000000000F0
:0E0D04000000000000000000000000000000E1
:040D120000000000DD
:07010800750C00750D007578
:02010F000E00E0
:0708020012080B120843026B
:02080900080DD8
:02080B000022C9
:09080D007591FFD2A8439A012263
:0308160075E10485
:0908190090DF3BE0FABA01012274
:030822000080F45F
:0308250075E10278
:0908280090DF3BE0FABA0D012259
:030831000080F450
:0308340075E10368
:0908370090DF3BE0FABA13012244
:030840000080F441
:0E08430090DF0074FFF090DF01E4F090DF0220
:0D08510074FFF090DF03E4F090DF04F090FE
:0E085E00DF05F090DF077406F090DF08E4F08D
:0D086C0090DF0C7499F090DF0D7466F09031
:0E087900DF0E7433F090DF0F7461F090DF102B
:0E088700747EF090DF117415F090DF1274078C
:0E089500F090DF137430F090DF147418F090C0
:0E08A300DF157417F090DF1A74B6F090DF1BAB
:0E08B1007411F090DF1C74E9F090DF1D742AC2
:0D08BF00F090DF1EE4F090DF1F741FF0903A
:0E08CC00DF247431F090DF257409F090DF2EE8
:0E08DA00E4F090DF177407F090DF18E4F09060
:0E08E800DF197491F090DF097426F090DF0A9A
:0E08F6007430F090DF0B7470F090DF06740227
:08090400F090DF2D74C0F02219
:0A090C00C00F85810FAA82AB83ACF7
:0C091600F0FD05817E00750C00C002C0E1
:0E09220003C004C005C0061201BA1208161266
:0E0930000825D006D005D004D003D0027F00E9
:0A093E00C3EF950C505AC006EF24D9
:0A0948008BF582E434F3F583E0FE42
:0A095200A80F08A606A80F08868269
:0D095C00C002C003C004C005C006C00712E1
:0E09690004ADD007D006D005D004D003D002D4
:05097700BF0202800434
:04097C00D006800C15
:0C098000D006A80F08E670047E02802D4F
:0A098C00EF24FD500AEFB50C06A899
:050996000F08E6601EE1
:03099B000F80A02A
:0C099E00E50C709CEA4B4C4D6096C3EADF
:0709AA009508EB9509EC959F
:0809B1000AED950B50877E0151
:0D09B900C006120816D006EE7009C0061226
:0609C6000618D0068007B0
:0709CC00C00612023CD00638
:0809D3008E82850F81D00F22F6
:0A09DB00120816120834758200227B
:0E09E500C0E0C082C083C002C003C0D075D085
:0B09F3000090DF3BE0FABA0D02800527
:0509FE00BA133A803538
:0A0A0300AAD9E50C701490F2CBE5BF
:0C0A0D000EF090DF3AE0FB90F2CCF075A8
:040A19000C02050EB8
:090A1D007440250C4012AB0C05DD
:080A26000CEB24CBF582E43453
:070A2E00F2F583EAF08006F7
:030A35000080033B
:030A380075D9006D
:0D0A3B00D0D0D003D002D083D082D0E032E2
:0D0A4800C0E0E5E930E70675E10453E97F01
:0B0A5500E5E930E60675E10453E9BF57
:080A6000E5E930E50353E9DF8D
:080A6800E5E930E40353E9EF76
:080A7000E5E930E30353E9F767
:080A7800E5E930E20353E9FB5C
:080A8000E5E930E10353E9FD53
:080A8800E5E930E00353E9FE4B
:060A9000759B00D0E0326E
:0E0D160012010002020000205104A716000185
:0E0D24000102030109023000020100C0320981
:0E0D3200040000010202010007058103080011
:0E0D40000A09040100020A000000070504026F
:0E0D4E00400000070585024000000403091064
:0E0D5C003C036B00650069006E0065006300DB
:0E0D6A0068007400650072006400650075008A
:0E0D78007400730063006800650072004000A4
:0E0D860067006D00610069006C002E006300C4
:0E0D94006F006D000E0343004300310031007C
:0D0DA2003100310008033000300031000046
:0E0DAF00000000000000000000000000000036
:0E0DBD00000000000000000000000000000028
:0E0DCB0000000000000000000000000000001A
:0E0DD90000000000000000000000000000000C
:0E0DE7000000000000000000000000000000FE
:0E0DF5000000000000000000000000000000F0
:0E0E03000000000000000000000000000000E1
:0E0E11000000000000000000000000000000D3
:0E0E1F000000000000000000000000000000C5
:0E0E2D000000000000000000000000000000B7
:0E0E3B000000000000000000000000000000A9
:0E0E490000000000000000000000000000009B
:0E0E570000000000000000000000000000008D
:0A0E65000000000000000000000083
:0E0E6F00000000000000000000000000000075
:0E0E7D00000000000000000000000000000067
:0E0E8B00000000000000000000000000000059
:0E0E990000000000000000000000000000004B
:0E0EA70000000000000000000000000000003D
:0E0EB50000000000000000000000000000002F
:0E0EC300000000000000000000000000000021
:0E0ED100000000000000000000000000000013
:0E0EDF00000000000000000000000000000005
:0E0EED000000000000000000000000000000F7
:0E0EFB000000000000000000000000000000E9
:0E0F09000000000000000000000000000000DA
:0E0F17000000000000000000000000000000CC
:0A0F250000000000000000000000C2
:0E0A9600758805759800759B0075C00075E8A1
:040AA40000D2AF22AB
:030AA800C2AF22B8
:0600BA00E478FFF6D8FD1A
:08009800794BE94404601B7A76
:0500A00005900AE47860
:0300A50000759350
:0A00A800F0E493F2A308B80002058B
:0800B20093D9F4DAF27593FF13
:0E0AAB0020F71030F6118883A88220F507F698
:050AB900A88375830015
:010ABE002215
:030ABF00F280F7CB
:020AC200F02220
:0800C0007800E84400600A79B1
:0300C8000075932D
:0600CB00F0E4F309D8FC8B
:0800D1007800E84400600C799E
:0B00D9000090F000E4F0A3D8FCD9FA7E
:03008B0075813547
:0A008E00120AE0E58260030200861A
:0E0AC40020F71430F6148883A88220F507E688
:060AD200A88375830022D9
:030AD800E280F7C2
:030ADB00E493227F
:020ADE00E02214
:040AE00075820022F9
:00000001FF
