:0600000002008B020A2C35
:01000B0032C2
:0100130032BA
:01001B0032B2
:0100230032AA
:01002B0032A2
:030033000207D3EE
:01003B003292
:01004300328A
:03004B000201CEE1
:01005300327A
:01005B003272
:01006300326A
:01006B003262
:01007300325A
:01007B003252
:03008300020A8FDF
:03011B0002008659
:0500860012011E80FEC6
:07011E0012017A1201A61282
:06012500023A1202491229
:06012B000849120ADD1272
:0B01310001C09003E8E4F5F002095360
:0E0B2B0012010002020000205104A716000172
:0E0B39000102030109023000020100C032096E
:0E0B47000400000102020100070581030800FE
:0E0B55000A09040100020A000000070504025C
:0E0B6300400000070585024000000403091051
:0E0B71003C036B00650069006E0065006300C8
:0E0B7F00680074006500720064006500750077
:0E0B8D00740073006300680065007200400091
:0E0B9B0067006D00610069006C002E006300B1
:0E0BA9006F006D000E03430043003100310069
:0D0BB7003100310008033000300031000033
:08013C00C00F85810FAA82A803
:0C0144000F181818C3EA9650048A828035
:0101500007A7
:07015100A80F1818188682A0
:03015800D00F22A3
:08015B00C00F85810FAA82A8E4
:0C0163000F181818C3E69A50048A828016
:01016F000788
:07017000A80F181818868281
:03017700D00F2284
:06017A0053BEFB53C6BF9B
:08018000E5C630E6030080F83B
:0301880053C6C09B
:0A018B00743F55C6FA60030080F6C9
:0A019500744055BEFABA4002800320
:03019F000080F3EA
:0401A20043BE042232
:0600E400E4F508F509F542
:0300EA000AF50B09
:0E01A60075E40075E20075E54475E60075E746
:0C01B4000075DAED75DB02C2DED2B92264
:0401C00075E40922B7
:0601C400E4F508F509F561
:0401CA000AF50B2205
:0E01CE00C0E0C002C003C004C005C0D075D0A0
:0E01DC0000AADA7B00ADDBE42AFAED3BFBE47F
:0E01EA00FCFD74EE2AFA74023BE43CE43D8A0C
:0E01F800DAAADA7B00ADDBE42AFAED3BFBE489
:0E020600FCFD74EE2A74023BFBE43CE43D8BED
:09021400DB74012508F508E4354E
:05021D0009F509E435BC
:050222000AF50AE435B5
:0A0227000BF50B53E4DFD0D0D00537
:09023100D004D003D002D0E03269
:06023A0043FE0202024334
:03024000D2912236
:03024300C2912243
:03024600B2912250
:0600ED00E4F52BF52CF5F3
:0500F3002DE4F52EF5DF
:0500F8002FF530E4F5D6
:0500FD0031F532E4F5CD
:0501020033F534E4F5C3
:0501070035F536E4F5BA
:04010C0037F5387516
:020110003900B4
:0A02490012025812029A7582001288
:0502530002C00202AA36
:0902580043BE8043FE01D2902256
:0D02610075828012027C75820012027C758D
:03026E0039002232
:0B02710090DE11E04420F075390322FC
:07027C00AA82BA0002800D06
:09028300BA8013E4F531F532F5FF
:04028C0035F53622EC
:06029000E4F533F534F53E
:0302960037F53801
:010299002242
:0E029A0090DE02E4F090DE04F090DE06F0C28A
:0202A800E8224A
:0D02AA0090DE077423F090DE097410F090D0
:0902B700DE0B7404F0439A0222EC
:0B02C000AA828A217582011207CC90EF
:0E02CB00DE107401F090DE137401F0758204F1
:0E02D9001207CC90DE10E4F090DE137408F0F3
:0D02E7007582051207CC90DE107408F090AF
:0502F400DE13E4F0221E
:0602F9008521820204D9F8
:0702FF00AA8290DE00EAF084
:0903060090DE00E0FBB5020122CB
:03030F000080F477
:0A031200C00F85810F0581058105EC
:0B031C0081AA82AD837B00A80F087649
:07032700990876F00876004A
:0C032E00A80F0886820886830886F0125B
:08033A000B0BFF70030203BD71
:0C034200C007A80F08740126FFE408366D
:0E034E00FC0886038F828C838BF0120B0BFF52
:05035C00B5050280045C
:04036100D007803C05
:0C036500D0078A031AEB7034BD021FA8F9
:0C0371000F08740226FBE40836FC088626
:0C037D00058B828C838DF0120B0BFB8B28
:0603890031753200800511
:05038F008F3175320002
:07039400A80F08862B088664
:06039B002C08862D801FD6
:0C03A100A80F0886820886830886F012E8
:0C03AD000B0BFBA80F08EB26F6E408364B
:0403B900F602032E17
:0303BD00120271B8
:0603C000850F81D00F2221
:0403C600752E2375F8
:0603CA002F0075304075A4
:0903D0003308E4F53475820002E3
:0203D90005D944
:0903DB00E529452A602A748055C9
:0903E40023FA6010BA8028752B81
:0303ED0032752C3A
:0503F000F1752D007500
:0303F500390122A9
:0403F800752E3275B7
:0303FC002FF17569
:0403FF00300085291C
:0304030033852A14
:050406003475390222EB
:08040B0090DE11E0FA4408F054
:0104130022C6
:060414001203C6E53345AA
:04041A003460012227
:0C041E001203DBAA2374605AFB60030287
:02042A0004BD0F
:08042C0053021FBA0002800E0A
:05043400BA0102805234
:06043900BA02030204AD4B
:03043F000204BDF7
:07044200AA24BA0002801495
:05044900BA0502801D50
:05044E00BA0602802047
:05045300BA080280263A
:05045800BA09628026D4
:0E045D007582001204D97582001204D98052F3
:08046B008525821202FF804A80
:070473008525828526831216
:04047A000312803FAA
:05047E001202F9803AB2
:080483008525821202C08032BF
:07048B00AA24BA000280055B
:05049200BA0A28800EEB
:0E0497007582001204D97582001204D98018F3
:0804A5007582001204D98010D9
:0C04AD00E4B5240C7582001204D975829D
:0404B900001204D950
:0804BD007401B53916AA298566
:0C04C5003182C00212013CAA8215818A1B
:0504D10031753200024C
:0204D600058B94
:0104D8002201
:0704D900AA82AB31AC320531
:0604E00031E4B531020514
:0104E60032E3
:0A04E700EB2432F582EC34F1F583CA
:0304F100EAF0220C
:0E04F400AA8290DE0EE025E02420F582E4349A
:06050200DEF583EAF022A1
:0E05080090DE0EE025E02420F582E434DEF5DE
:0505160083E0F58222E4
:04051B00AA827B0035
:0A051F00C3EB9A5028AC2BAD2CAEB4
:0C0529002D8C828D838EF0120B0BFC05D4
:060535002BE4B52B0205CA
:01053B002C93
:0E053C008C82C002C0031204F4D003D0020B64
:02054A0080D35C
:01054C00228C
:04054D00AA827B0003
:0A055100C3EB9A5034AC2EAD2FAE70
:0C055B0030C002C003C004C005C006127E
:0E0567000508AF82D006D005D004D003D00224
:0C0575008C828D838EF0EF120AF2052EAE
:06058100E4B52E02052F77
:030587000B80C71F
:01058A00224E
:0C058B008531827420C0E012013CAA827D
:020597001581CC
:0B05990090DE11E0FB30E1030080F574
:0E05A4008A82C00212051BD00290DE11E0FB1D
:0A05B2004402F0C3E5319420E53265
:0D05BC009400500B90DE11E0FB4408F07538
:0205C9003900F7
:0905CB007B00E531C39AF531E52E
:0505D400329BF532220C
:0C05D900AA82853382C0027420C0E012A8
:0E05E500013CAB82158190DE16E0C0E08B82F7
:0E05F30012013CAB8215818B82C00312054DB4
:0E060100D003D00290DE11E0FC4440F0C3E5CF
:0A060F00339420E5349400501E8B54
:0A061900047D00E533C39CFCE534CA
:0E0623009DFD4C700EEA600890DE11E0FA4476
:0206310008F0CF
:0306330075390016
:090636007A00E533C39BF533E5BE
:05063F00349AF534229D
:0C0644008531827440C0E012013CAA82A3
:0406500015817B0095
:0B06540090DE11E0FC30E0030080F5B8
:0E065F008A82C002C00312051BD003D0029095
:0C066D00DE11E0FC4401F0C3E5319440D4
:09067900E53294005003753900CC
:07068200E531C39AF531E5F3
:06068900329BF532EA2568
:05068F0035F535EB35E7
:0406940036F53622DF
:0C0698008533827440C0E012013CAA824D
:0E06A40015817B008A82C002C00312054DD072
:0D06B20003D00290DE14E0FC54FEF0C3E51E
:0A06BF00339440E5349400500375B5
:0206C9003900F6
:0706CB00E533C39AF533E5A6
:0606D200349BF534EA251B
:0506D80037F537EB359A
:0406DD0038F5382292
:0E06E1007582001207CC90DE11E0FA30E40AB8
:0A06EF0090DE11E04480F012026179
:0E06F90090DE11E0FA30E20A90DE11E054FBD0
:04070700F012026189
:08070B007401B5390312058BDE
:0C07130090DE11E0FA30E016E4B5390287
:02071F00800751
:070721007402B5390B8003DF
:03072800020414B4
:06072B007582010205D9F0
:0107310022A5
:060732007582010207CCF4
:0E0738007582051207CC90DE11E0FA30E50A5A
:0A07460090DE11E054DFF0120261B2
:080750007401B53903020644EF
:01075800227E
:0E0759007582041207CC90DE14E0FA30E60A36
:0A07670090DE14E054BFF0120261AE
:0C07710090DE14E0FA30E052E53970111F
:07077D00F58212027C752ECB
:0307840032752F9C
:05078700F17530007562
:02078C00390230
:0D078E0090DE17E0FA5302078A037A00900C
:0C079B00DE16E0FC7D00EA4CF533EB4D6F
:0607A700F534120698E58E
:0A07AD0039701B75828012027C85F2
:0307B70037318552
:0307BA003832755D
:0307BD002B327567
:0307C0002CF175A4
:0607C3002D007539010252
:0207C9000738EF
:0107CB00220B
:0707CC00E58290DE0EF02231
:0C07D300C020C0E0C0F0C082C083C002A3
:0E07DF00C003C004C005C006C007C000C001B2
:0E07ED00C0D075D00090DE06E0FA30E20312B4
:0207FB0002AA50
:0B07FD0090DE02E0FA30E0031206E19B
:0B08080090DE02E0FA30E1031207323C
:0B08130090DE04E0FA30E40312075905
:0B081E0090DE02E0FA30E5031207381C
:0E08290012029AD0D0D001D000D007D006D055
:0E08370005D004D003D002D083D082D0F0D000
:04084500E0D02032AD
:0E0BC40012010002020000205104A7160001D9
:0E0BD2000102030109023000020100C03209D5
:0E0BE000040000010202010007058103080065
:0E0BEE000A09040100020A00000007050402C3
:0E0BFC004000000705850240000004030910B8
:0E0C0A003C036B00650069006E00650063002E
:0E0C18006800740065007200640065007500DD
:0E0C26007400730063006800650072004000F7
:0E0C340067006D00610069006C002E00630017
:0E0C42006F006D000E034300430031003100CF
:0D0C50003100310008033000300031000099
:0E0C5D00000000000000000000000000000089
:0E0C6B0000000000000000000000000000007B
:0E0C790000000000000000000000000000006D
:0E0C870000000000000000000000000000005F
:0E0C9500000000000000000000000000000051
:0E0CA300000000000000000000000000000043
:0E0CB100000000000000000000000000000035
:0E0CBF00000000000000000000000000000027
:0E0CCD00000000000000000000000000000019
:0E0CDB0000000000000000000000000000000B
:0E0CE9000000000000000000000000000000FD
:0E0CF7000000000000000000000000000000EF
:0E0D05000000000000000000000000000000E0
:0E0D13000000000000000000000000000000D2
:0E0D21000000000000000000000000000000C4
:0E0D2F000000000000000000000000000000B6
:0E0D3D000000000000000000000000000000A8
:0E0D4B0000000000000000000000000000009A
:040D59000000000096
:07011200750C00750D00756E
:020119000E00D6
:0708490012085212088A0296
:0208500008544A
:02085200002282
:090854007591FFD2A8439A01221C
:03085D0075E1043E
:0908600090DF3BE0FABA0101222D
:030869000080F418
:03086C0075E10231
:09086F0090DF3BE0FABA0D012212
:030878000080F409
:03087B0075E10321
:09087E0090DF3BE0FABA130122FD
:030887000080F4FA
:0E088A0090DF0074FFF090DF01E4F090DF02D9
:0D08980074FFF090DF03E4F090DF04F090B7
:0E08A500DF05F090DF077406F090DF08E4F046
:0D08B30090DF0C7499F090DF0D7466F090EA
:0E08C000DF0E7433F090DF0F7461F090DF10E4
:0E08CE00747EF090DF117415F090DF12740745
:0E08DC00F090DF137430F090DF147418F09079
:0E08EA00DF157417F090DF1A74B6F090DF1B64
:0E08F8007411F090DF1C74E9F090DF1D742A7B
:0D090600F090DF1EE4F090DF1F741FF090F2
:0E091300DF247431F090DF257409F090DF2EA0
:0E092100E4F090DF177407F090DF18E4F09018
:0E092F00DF197491F090DF097426F090DF0A52
:0E093D007430F090DF0B7470F090DF067402DF
:08094B00F090DF2D74C0F022D2
:0A095300C00F85810FAA82AB83ACB0
:0C095D00F0FD05817E00750C00C002C09A
:0E09690003C004C005C0061201C412085D12CE
:0E097700086CD006D005D004D003D0027F005B
:0A098500C3EF950C505AC006EF2492
:0A098F008BF582E434F3F583E0FEFB
:0A099900A80F08A606A80F08868222
:0D09A300C002C003C004C005C006C007129A
:0E09B00004D9D007D006D005D004D003D00261
:0509BE00BF02028004ED
:0409C300D006800CCE
:0C09C700D006A80F08E670047E02802D08
:0A09D300EF24FD500AEFB50C06A852
:0509DD000F08E6601E9A
:0309E2000F80A0E3
:0C09E500E50C709CEA4B4C4D6096C3EA98
:0709F1009508EB9509EC9558
:0809F8000AED950B50877E010A
:0D0A0000C00612085DD006EE7009C0061297
:060A0D000644D00680073C
:070A1300C006120246D006E6
:080A1A008E82850F81D00F22AE
:0A0A220012085D12087B75820022A5
:0E0A2C00C0E0C082C083C002C003C0D075D03D
:0B0A3A000090DF3BE0FABA0D028005DF
:050A4500BA133A8035F0
:0A0A4A00AAD9E50C701490F2CBE578
:0C0A54000EF090DF3AE0FB90F2CCF07561
:040A60000C02050E71
:090A64007440250C4012AB0C0596
:080A6D000CEB24CBF582E4340C
:070A7500F2F583EAF08006B0
:030A7C00008003F4
:030A7F0075D90026
:0D0A8200D0D0D003D002D083D082D0E0329B
:0D0A8F00C0E0E5E930E70675E10453E97FBA
:0B0A9C00E5E930E60675E10453E9BF10
:080AA700E5E930E50353E9DF46
:080AAF00E5E930E40353E9EF2F
:080AB700E5E930E30353E9F720
:080ABF00E5E930E20353E9FB15
:080AC700E5E930E10353E9FD0C
:080ACF00E5E930E00353E9FE04
:060AD700759B00D0E03227
:0E0D5D0012010002020000205104A71600013E
:0E0D6B000102030109023000020100C032093A
:0E0D79000400000102020100070581030800CA
:0E0D87000A09040100020A0000000705040228
:0E0D950040000007058502400000040309101D
:0E0DA3003C036B00650069006E006500630094
:0E0DB100680074006500720064006500750043
:0E0DBF0074007300630068006500720040005D
:0E0DCD0067006D00610069006C002E0063007D
:0E0DDB006F006D000E03430043003100310035
:0D0DE90031003100080330003000310000FF
:0E0DF6000000000000000000000000000000EF
:0E0E04000000000000000000000000000000E0
:0E0E12000000000000000000000000000000D2
:0E0E20000000000000000000000000000000C4
:0E0E2E000000000000000000000000000000B6
:0E0E3C000000000000000000000000000000A8
:0E0E4A0000000000000000000000000000009A
:0E0E580000000000000000000000000000008C
:0E0E660000000000000000000000000000007E
:0E0E7400000000000000000000000000000070
:0E0E8200000000000000000000000000000062
:0E0E9000000000000000000000000000000054
:0E0E9E00000000000000000000000000000046
:0A0EAC00000000000000000000003C
:0E0EB60000000000000000000000000000002E
:0E0EC400000000000000000000000000000020
:0E0ED200000000000000000000000000000012
:0E0EE000000000000000000000000000000004
:0E0EEE000000000000000000000000000000F6
:0E0EFC000000000000000000000000000000E8
:0E0F0A000000000000000000000000000000D9
:0E0F18000000000000000000000000000000CB
:0E0F26000000000000000000000000000000BD
:0E0F34000000000000000000000000000000AF
:0E0F42000000000000000000000000000000A1
:0E0F5000000000000000000000000000000093
:0E0F5E00000000000000000000000000000085
:0A0F6C00000000000000000000007B
:0E0ADD00758805759800759B0075C00075E85A
:040AEB0000D2AF2264
:030AEF00C2AF2271
:0600BA00E478FFF6D8FD1A
:08009800794BE94404601B7A76
:0500A00005900B2B7818
:0300A50000759350
:0A00A800F0E493F2A308B80002058B
:0800B20093D9F4DAF27593FF13
:0E0AF20020F71030F6118883A88220F507F651
:050B0000A883758300CD
:010B050022CD
:030B0600F280F783
:020B0900F022D8
:0800C0007800E84400600A79B1
:0300C8000075932D
:0600CB00F0E4F309D8FC8B
:0800D1007800E84400600C799E
:0B00D9000090F000E4F0A3D8FCD9FA7E
:03008B0075813943
:0A008E00120B27E5826003020086D2
:0E0B0B0020F71430F6148883A88220F507E640
:060B1900A8837583002291
:030B1F00E280F77A
:030B2200E4932237
:020B2500E022CC
:040B270075820022B1
:00000001FF
