:06000000020089020D134D
:01000B0032C2
:0100130032BA
:01001B0032B2
:0100230032AA
:01002B0032A2
:030033000208E8D8
:01003B003292
:01004300328A
:03004B000201EAC5
:01005300327A
:01005B003272
:01006300326A
:01006B003262
:01007300325A
:01007B003252
:03008300020DE08B
:030106000200866E
:030086000201096B
:1A01090012016112019512025E12026D12093512109F1201AF120E5A80FB05
:20012300C012858112AF82E51224FDF8C3EF9650048F828007E51224FDF88682D01222C081
:1E01430012858112AF82E51224FDF8C3E69F50048F828007E51224FDF88682D01222E3
:20016100AFBE74FB5FF5BEAFC674BF5FF5C6E5C630E6030080F853C6C0743F55C6FF600389
:140181000080F6744055BEFFBF400280030080F343BE042210
:0900E200E4F508F509F50AF50B37
:2001950075E40075E20075E54475E60075E70075DAED75DB02C2DED2B92275E40922E4F50D
:2001B50008F509F50AF50B22AC82AD83AEF0FFC007C006C005C0041201B3D004D005D006AD
:2001D500D007C3E5089CE5099DE50A9EE50B9F50030080EE22C0E0C007C006C005C004C0E7
:2001F500D075D000AEDA7F00ACDB8C05E42EFEED3FFFE4FDFC74EE2EFE74023FE43DE43C1A
:200215008EDAAEDA7F00ACDB8C05E42EFEED3FFFE4FDFC74EE2E74023FFFE43DE43C8FDB3B
:2002350074012508F508E43509F509E4350AF50AE4350BF50BAFE474DF5FF5E4D0D0D00412
:09025500D005D006D007D0E0323C
:0F025E0043FE02020267D29122C29122B2912284
:0900EB00753900753A00753B00FF
:20026D0012027F12028575820012063B12031202032843FE01D2902243BE8022AFBE747FDE
:20028D005FF5BE2290DE11E0FF74204FF090FFFF0202A7753900753A0022AE82AF83C0070B
:2002AD00C0061202BDD006D0078E828F830202CFAE82AF83EE4F6006BEFF06BFFF03753BBF
:2002CD000022AE82AF83EE4F6006BEFF09BFFF06752B00752C00BE0405BF00028006BEFF54
:2002ED0009BFFF06752D00752E00BE0505BF00028006BEFF0FBFFF0C752F0075300075314B
:20030D00007532002290DE077421F090DE097410F090DE0B7404F0439A022290DE06E4F0F8
:20032D0090DE02F090DE04F0C2E822E58290DE0EF02290DE0EE0F58222AF82C00712033FEC
:20034D00AE82D007EE2E2420F582E434DEF583EFF02212033FE58225822420F582E434DE30
:20036D00F583E0F58222AF82E52CFE04F52CEE2400F582E434F0F583EFF022AF828F061F2B
:20038D00EE6023AC33AD34AE358C828D838EF01210CFFC0533E4B5330205348C82C007128D
:2003AD000346D00780D722AF828F061FEE602FAC36AD37AE38C007C006C005C00412035FFF
:2003CD00AB82D004D005D006D0078C828D838EF0EB1210B40536E4B536CF053780CB228529
:2003ED002C827420C0E0120123AF8215818F82C007120388D00790DE11E0FE74024EF0E5CF
:20040D002CC39FF52CBF2000500F90DE11E0FF74084FF09000000202BD22AF8290DE16E0C1
:20042D00FE852B82C007C00612012315817420C0E0120123AE8215818E82C0061203B4D087
:20044D0006D00790DE11E0FD74404DF0E52BC39EFE8E2B7012EF600990DE11E0FF74084F3A
:20046D00F09000000202BD2275820512033890DE11E0FF74014FF0AE2FAF308E318F327500
:20048D002F007530002275820412033890DE14E0FF74FE5FF02275820512033890DE11E025
:2004AD00FF30E0030080F522AF82C0071204A3D0078F821203467401252FFEE43530FF8EF5
:2004CD002F8F30BE4006BF0003020475227582001204B5E52F4530700C7440B53106E4B5BE
:2004ED0032028001221204A30204751204B50204DAC012858112C082C083C0F07C00E512A7
:20050D0024FDF886038B021BEA602CC0038C020CA81208EA26FAE40836FB0886078A828B9C
:20052D00838FF01210CFF582C004C0031204B5D003D004D00380CE1204DA851281D012221E
:20054D00E52D452E703B75820412033890DE14E0FF20E00490FFFF2290DE17E0FF5307073C
:20056D008F067F0090DE16E0FD7C004207EC42068F2D8E2EE52D452E700712049390FFFF55
:20058D002212035FAF82E52D24FFFDE52E34FFFE8D2D8E2EED4E7007C007120493D0077E24
:2005AD00008F828E832212054DAE82AF838E048F05BEFF06BFFF030080EC8C82221205B314
:2005CD00AE827F00C007C0061205B3AD82D006D0077C00ED2FF582EC3EF583221205CAAECA
:2005ED0082AF838F048E057F007E00C007C006C005C0041205CAAA82AB83D004D005D00647
:20060D00D0078A008B01E4FAFBE82EFEE93FFFEA3DFDEB3C8E828F838DF022AF8290DE0021
:20062D00EFF090DE00E0FEB50701220080F4AF828F2175820412033890DE10E4F090DE1333
:20064D007408F075820512033890DE107408F090DE13E4F022852182020373C012858112ED
:20066D00058105810581AE82AC837F00A8120876420876F0087600A81208868208868308B4
:20068D0086F01210CFFA700302070DC002A81208740126FAE40836FD0886078A828D838FEB
:2006AD00F01210CFFAB504028004D0028036D0028E071EEF702EBC021CA81208740226FC45
:2006CD00E40836FD0886078C828D838FF01210CFFC8C2C80028A2CA812088633088634089A
:2006ED008635801FA8120886820886830886F01210CFFFA81208EF26F6E40836F6020684D9
:20070D00120291851281D01222753623753700753840752B08758200020427E529452A60FB
:20072D002C74805523FFFEBE00028010BF80277533007534F0753500753B01227536027581
:20074D0037F0753800AF298F2B753B022290DE11E0FF74084FF022120716E52B6001221243
:20076D000728AF2374605FFE600302080D53071FBF0002800EBF01028054BF02030207FD98
:20078D0002080DAF24BF00028014BF0502801DBF06028021BF08028027BF09648027758208
:2007AD00001203737582001203738054AF258F82120628804B8525828526831206688040C7
:2007CD00120662803BAF258F8212063B8032AF24BF00028005BF0A28800E758200120373D6
:2007ED0075820012037380187582001203738010E4B5240C758200120373758200120373FF
:20080D007401B53B13AF29852C82C007120123AF8215818F2C0203EC2275820012033890E2
:20082D00DE11E0FF30E40F90DE11E0FF74804FF09000001202A790DE11E0FF30E20F90DEF1
:20084D0011E0FF74FB5FF09000001202A77401B53B031203EC90DE11E0FF30E014E4B53BD3
:20086D0002800B7402B53B097582010204270207642275820412033890DE14E0FF30E60FED
:20088D0090DE14E0FF74BF5FF09000040202A72275820512033890DE11E0FF30E50F90DECE
:2008AD0011E0FF74DF5FF09000050202A72290DE06E0FF30E20912031290FFFF1202A7E574
:2008CD0039FF30E003120826E53A30E40312087FE53930E50312089D0202A0C020C0E0C0E0
:2008ED00F0C082C083C007C006C005C004C003C002C001C000C0D075D00090DE02E04239BA
:20090D0090DE04E0423AC2E81208BBD0D0D000D001D002D003D004D005D006D007D083D01E
:08092D0082D0F0D0E0D02032AE
:2011180012010002020000205104A71600010102030109022000020100C032090400000237
:201138000A0000000705040240000007058502400000040309103C036B00650069006E0062
:201158006500630068007400650072006400650075007400730063006800650072004000F5
:2011780067006D00610069006C002E0063006F006D000E0343004300310031003100310085
:09119800080330003000310000B2
:1200F400750C00750D00750E00750F00751000751100E5
:2009350012097402093B7591FFD2A8439A012290DF3BE0FFBF0101220080F475E104020909
:200955004475E10290DF3BE0FFBF0D01220080F475E10390DF3BE0FFBF1301220080F4901F
:20097500DF0074FFF090DF01E4F090DF0214F090DF03E4F090DF04F090DF05F090DF077470
:2009950006F090DF08E4F090DF0C7499F090DF0DF4F090DF0E03F090DF0F7461F090DF10F7
:2009B500747EF090DF117415F090DF127407F090DF137430F090DF1403F090DF1514F090B7
:2009D500DF1A74B6F090DF1B7411F090DF1C74E9F090DF1D742AF090DF1EE4F090DF1F749B
:2009F5001FF090DF247431F090DF257409F090DF2EE4F090DF177407F090DF18E4F090DF7E
:200A1500197491F090DF097426F090DF0A7430F090DF0B7470F090DF067402F090DF2D746B
:200A3500C0F022AF827C007D007E00EF24DC5003020BD1EF240A83F582EF242883F583E4D6
:200A5500739EA7B0B9C2CBD4DDE6EFF8010A131C252E374049525B636B737B838B939BA3C0
:200A7500ABB3BBC3CB0A0A0A0A0A0A0A0A0A0A0A0B0B0B0B0B0B0B0B0B0B0B0B0B0B0B0B9C
:200A95000B0B0B0B0B0B0B0B0B7C007DDF7E00020BD17C017DDF7E00020BD17C027DDF7E1D
:200AB50000020BD17C037DDF7E00020BD17C047DDF7E00020BD17C057DDF7E00020BD17C1F
:200AD500077DDF7E00020BD17C087DDF7E00020BD17C0C7DDF7E00020BD17C0D7DDF7E0063
:200AF500020BD17C0E7DDF7E00020BD17C0F7DDF7E00020BD17C107DDF7E00020BD17C11AD
:200B15007DDF7E00020BD17C127DDF7E00020BD17C137DDF7E00020BD17C147DDF7E00020F
:200B35000BD17C167DDF7E00020BD17C157DDF7E00020BD17C1A7DDF7E00020BD17C1B7DCF
:200B5500DF7E00020BD17C1C7DDF7E00806E7C1D7DDF7E0080667C1E7DDF7E00805E7C1F9F
:200B75007DDF7E0080567C247DDF7E00804E7C257DDF7E0080467C2D7DDF7E00803E7C2E3C
:200B95007DDF7E0080367C177DDF7E00802E7C187DDF7E0080267C197DDF7E00801E7C09EF
:200BB5007DDF7E0080167C0A7DDF7E00800E7C0B7DDF7E0080067C067DDF7E008C828D8361
:200BD5008EF022C012858112AF82C007120950D00790DF06EFF0750C001209561201B390A0
:200BF500F0CDE0FF7E0074CCB50E02805EC3EE950C502CEE700EE50C24FD5008EF70057566
:200C15000EBB8047EE24CBF582E434F0F583E0FD0EEE24FD50D0EEB50CCCED70C9802CE50F
:200C35000C70C3E51224FAF8E608460846084660B5E51224FAF8C3E6950808E6950908E6A1
:200C5500950A08E6950B509E750EAA120950E50E700DC00C90F0CB75F0001204FE158185B1
:200C75000E82D01222C012858112AF82C007120950D00790DF06EFF0750D00750F007510C8
:200C950000E50D240740071205B3AF8280027F00AE0D050DEE24C3F582E434F1F583EFF066
:200CB500EF70DE120965120944E51224FDF886078F061FEE6036E51224F9F8E608460846A0
:200CD50008466016E51224F9F886820886830886F008E6C0071201BDD007750F0075100033
:200CF500C007120965120944D00780C4D01222120950750F00751000120965020944C020F7
:200D1500C0E0C0F0C082C083C007C006C005C004C003C002C001C000C0D075D00090DF3B4E
:200D3500E0FFBF0D028008BF1302805B020DC3AFD9E50C7035E51104F582C0077401C0E07D
:200D5500120142858211158190F0CBE511F090DF3AE0FE7401C0E08E82120142AE82158183
:200D7500D00790F0CCEEF0750C027408250C4012AE0C050CEE24CBF582E434F0F583EFF05D
:200D9500802C750ECC8027C3E50F950D5013AF0F050FEF24C3F582E434F1F583E0F5D98012
:200DB5000D75D90005107402B51003120950D0D0D000D001D002D003D004D005D006D007C9
:200DD500D083D082D0F0D0E0D02032C0E0C007C0D075D000E5E930E70A75E104AFE9747FB7
:200DF5005FF5E9E5E930E60A75E104AFE974BF5FF5E9E5E930E507AFE974DF5FF5E9E5E971
:200E150030E407AFE974EF5FF5E9E5E930E307AFE974F75FF5E9E5E930E207AFE974FB5FF5
:200E3500F5E9E5E930E107AFE974FD5FF5E9E5E9FF30E007AFE974FE5FF5E9759B00D0D0B8
:050E5500D007D0E032DF
:2011A10000000000000000000000000000000000000000000000000000000000000000002E
:2011C10000000000000000000000000000000000000000000000000000000000000000000E
:2011E1000000000000000000000000000000000000000000000000000000000000000000EE
:201201000000000000000000000000000000000000000000000000000000000000000000CD
:201221000000000000000000000000000000000000000000000000000000000000000000AD
:2012410000000000000000000000000000000000000000000000000000000000000000008D
:2012610000000000000000000000000000000000000000000000000000000000000000006D
:2012810000000000000000000000000000000000000000000000000000000000000000004D
:2012A10000000000000000000000000000000000000000000000000000000000000000002D
:2012C10000000000000000000000000000000000000000000000000000000000000000000D
:2012E1000000000000000000000000000000000000000000000000000000000000000000ED
:201301000000000000000000000000000000000000000000000000000000000000000000CC
:201321000000000000000000000000000000000000000000000000000000000000000000AC
:2013410000000000000000000000000000000000000000000000000000000000000000008C
:2013610000000000000000000000000000000000000000000000000000000000000000006C
:10138100000000000000000000000000000000005C
:200E5A001205B3AF82BF00028019BF01028024BF0202802FBF0302802DBF3202802BBF631A
:200E7A002E80297406C0E09010EF75F0801204FE158122741DC0E09010F675F0801204FE67
:200E9A00158122020EB9020EC7020EEE0210497403C0E090111475F0801204FE15812212F8
:200EBA0005B3120A381210CFF5820204F81205B3AF82C0071205B3AE82D0078F82C006122A
:200EDA000A38AC82AD83AFF0D0068C828D838FF0EE0210B41205B3AF82C0071205E9AB82A3
:200EFA00AC83ADF0FED007C003C004C005C0068F82120BD8AF82E58124FCF581EFFE6005A0
:200F1A008E820204F8221205B3AF82C0071205B3AE82C0061205E9AA82AB83ACF0FDD0063C
:200F3A00D007C002C003C004C005C0068F82120C7AE58124FBF58122C012E581F512240BB8
:200F5A00F5811205B3AF82A81208A6071205B3A8120808A6821205E9A812080808A68208D9
:200F7A00A68308A6F008F61205B3AE82E5122407F8A6061205E9AB82AC83ADF0FFE51224BF
:200F9A0008F8A60308A60408A60508A6071205B3AA828A07C007E5122403F8E6C0E008E69C
:200FBA00C0E008E6C0E008E6C0E0A8120808E6C0E0A812088682120C7AE58124FBF581E5C9
:200FDA00122408F8E6C0E008E6C0E008E6C0E008E6C0E0E5122407F88682120BD8AA82E569
:200FFA008124FCF581D0078F06BAAA35EE6032C006120D04E5122408F8E6C0E008E6C0E023
:20101A0008E6C0E008E6C0E0E5122407F88682120BD8AF82E58124FCF581D0068F021E8051
:20103A00C8EA60058A821204F8851281D01222C012E581F5122404F5811205E9AC82AD830E
:20105A00AEF0FFA81208A60408A60508A60608A607A8120808080886078F821204F8A81211
:20107A0008080886068E821204F8A812080886058D821204F8A8120886048C821204F88535
:05109A001281D01222BA
:2010EF00434331313131006B65696E65636874657264657574736368657240676D61696C64
:09110F002E636F6D004E2F4100AC
:15109F00758805759800759B0075C00075E800D2AF22C2AF2255
:0600B800E478FFF6D8FD1C
:200096007979E94402601B7A0390111878427593F0E493F2A308B800020593D9F4DAF27552
:0200B60093FFB6
:1B10B40020F71130F6138883A88220F509F6A8837583002280FEF280F5F0223B
:2000BE007800E84400600A79007593F0E4F309D8FC7842E84400600C790190F000E4F0A32C
:0400DE00D8FCD9FA77
:0D00890075813B1210EBE5826003020086DA
:1C10CF0020F71430F6148883A88220F507E6A88375830022E280F7E49322E02230
:0410EB0075820022E8
:00000001FF
