:0600000002008B0208B1B2
:01000B0032C2
:0100130032BA
:01001B0032B2
:0100230032AA
:01002B0032A2
:0300330002075E63
:01003B003292
:01004300328A
:03004B000201AB04
:01005300327A
:01005B003272
:01006300326A
:01006B003262
:01007300325A
:01007B003252
:030083000208B2BE
:0300FF0002008676
:0500860012010280FEE2
:0701020012015512018D12DC
:0601090002021208EB12D5
:06010F0001A7120211021B
:0201150007D40D
:0E09390012010002020000205104A716000166
:0E0947000102030109023000020100C0320962
:0E0955000400000102020100070581030800F2
:0E0963000A09040100020A0000000705040250
:0E097100400000070585024000000403091045
:0E097F003C036B00650069006E0065006300BC
:0E098D0068007400650072006400650075006B
:0E099B00740073006300680065007200400085
:0E09A90067006D00610069006C002E006300A5
:0E09B7006F006D000E0343004300310031005D
:0D09C5003100310008033000300031000027
:08011700C01D85811DAA82A80C
:0C011F001D181818C3EA9650048A82804C
:01012B0007CC
:07012C00A81D1818188682B7
:03013300D01D22BA
:08013600C01D85811DAA82A8ED
:0C013E001D181818C3E69A50048A82802D
:01014A0007AD
:07014B00A81D181818868298
:03015200D01D229B
:0601550053BEFB53C6BFC0
:08015B00E5C630E6030080F860
:0C01630074C055C6F5F0740845F0F5C6F0
:0A016F00743F55C6FABA0802800377
:030179000080F310
:0A017C00744055BEFABA4002800339
:030186000080F303
:0401890043BE04224B
:0E018D0075E40075E20075E54475E60075E75F
:0C019B000075DA9E75DB24C2DED2B922AA
:0401A70075E40D22CC
:0E01AB00C0E0C002C003C004C005C0D075D0C3
:0E01B90000AADA7B00ADDBE42AFAED3BFBE4A2
:0E01C700FCFD749F2AFA74243BE43CE43D8A5C
:0E01D500DAAADA7B00ADDBE42AFAED3BFBE4AC
:0E01E300FCFD749F2A74243BFBE43CE43D8B3E
:0E01F100DB53E4DFD0D0D005D004D003D00221
:0301FF00D0E0321B
:0602020043FE0202020BA4
:03020800D291226E
:03020B00C291227B
:03020E00B2912288
:0600E400E4F512F513F52E
:0500EA0014E4F515F51A
:0500EF0016F517E4F511
:0500F40018F519E4F508
:0400F9001AF51B7564
:0200FD001C00E5
:0A0211001202201202407582001252
:05021B00026602025022
:0902200043BE8043FE01D290228E
:06022900E4F518F519F5DB
:04022F001AF51BF5AC
:020233001C228B
:0B02350090DE11E04420F0751C032255
:0E02400090DE02E4F090DE04F090DE06F0C2E4
:02024E00E822A4
:0D02500090DE077423F090DE097410F0902A
:09025D00DE0B7404F0439A022246
:0B026600AA828A0875820112075790D7
:0E027100DE107401F090DE137401F07582044B
:0E027F0012075790DE10E4F090DE137408F0C2
:0D028D0075820512075790DE107408F0907E
:05029A00DE13E4F02278
:06029F0085088202047FC5
:0702A500AA8290DE00EAF0DE
:0902AC0090DE00E0FBB502012226
:0302B5000080F4D2
:0A02B800C01D85811D05810581052B
:0B02C20081AA82AD837B00A81D087696
:0702CD00990876F0087600A5
:0C02D400A81D0886820886830886F012A8
:0802E0000919FF70030203631A
:0C02E800C007A81D08740126FFE40836BA
:0E02F400FC0886038F828C838BF0120919FFA1
:05030200B505028004B6
:04030700D007803C5F
:0C030B00D0078A031AEB7034BD021FA853
:0C0317001D08740226FBE40836FC088672
:0C032300058B828C838DF0120919FB8B76
:06032F001875190080059D
:050335008F187519008E
:07033A00A81D0886120886C9
:0603410013088614801F62
:0C034700A81D0886820886830886F01234
:0C0353000919FBA81D08EB26F6E408368B
:04035F00F60202D4CC
:030363001202354E
:06036600851D81D01D225F
:04036C0075150A7584
:0603700016007517407530
:090376001A08E4F51B758200026F
:02037F00057FF8
:09038100E5104511602A74805555
:09038A000AFA6010BA802875120D
:03039300327513AD
:05039600F17514007573
:03039B001C012220
:04039E0075153A7522
:0303A20016F175DC
:0403A50017008510A8
:0303A9001A8511A1
:0503AC001B751C02227C
:0803B10090DE11E0FA4408F0AF
:0103B9002221
:0603BA0012036CE51A4578
:0403C0001B6001229B
:0C03C400120381AA0A74605AFB60030255
:0203D0000463C4
:0803D20053021FBA0002800E65
:0503DA00BA010280528F
:0603DF00BA020302045300
:0303E500020463AC
:0703E800AA0BBA0002801409
:0503EF00BA0502801DAB
:0503F400BA06028020A2
:0503F900BA0802802695
:0503FE00BA096280262F
:0E04030075820012047F75820012047F805201
:08041100850C821202A5804A4D
:07041900850C82850D8312A2
:0404200002B8803F5F
:0504240012029F803A66
:08042900850C8212026680328C
:07043100AA0BBA00028005CE
:05043800BA0A28800E45
:0E043D0075820012047F75820012047F801801
:08044B0075820012047F80108D
:0C045300E4B50B0C75820012047F75826A
:04045F000012047F04
:080463007401B51C16AA1085F6
:0C046B001882C002120117AA8215818AB3
:050477001875190002D8
:02047C00053148
:01047E00225B
:07047F00AA82AB18AC1905BD
:0604860018E4B5180205A0
:01048C001956
:0A048D00EB2432F582EC34F1F58324
:03049700EAF02266
:0E049A00AA8290DE0EE025E02420F582E434F4
:0604A800DEF583EAF022FC
:0E04AE0090DE0EE025E02420F582E434DEF539
:0504BC0083E0F582223F
:0404C100AA827B0090
:0A04C500C3EB9A5028AC12AD13AE41
:0C04CF00148C828D838EF0120919FC053C
:0604DB0012E4B512020557
:0104E1001307
:0E04E2008C82C002C00312049AD003D0020B19
:0204F00080D3B7
:0104F20022E7
:0404F300AA827B005E
:0A04F700C3EB9A5034AC15AD16AEFD
:0C05010017C002C003C004C005C00612F1
:0E050D0004AEAF82D006D005D004D003D002D9
:0C051B008C828D838EF0EF120900051514
:06052700E4B51502051603
:03052D000B80C779
:0105300022A8
:0C0531008518827420C0E0120117AA8215
:02053D00158126
:0B053F0090DE11E0FB30E1030080F5CE
:0E054A008A82C0021204C1D00290DE11E0FBD2
:0A0558004402F0C3E5189420E519F1
:0D0562009400500B90DE11E0FB4408F07592
:02056F001C006E
:090571007B00E518C39AF518E5BA
:05057A00199BF5192298
:0C057F00AA82851A82C0027420C0E0121B
:0E058B000117AB82158190DE16E0C0E08B8276
:0E059900120117AB8215818B82C0031204F38E
:0E05A700D003D00290DE11E0FC4440F0C3E52A
:0A05B5001A9420E51B9400501E8BE1
:0A05BF00047D00E51AC39CFCE51B57
:0E05C9009DFD4C700EEA600890DE11E0FA44D1
:0205D70008F02A
:0305D900751C008E
:0905DC007A00E51AC39BF51AE54B
:0505E5001B9AF51B222A
:0C05EA008518827440C0E0120117AA823C
:0405F60015817B00F0
:0B05FA0090DE11E0FC30E0030080F513
:0E0605008A82C002C0031204C1D003D002904A
:0C061300DE11E0FC4401F0C3E518944047
:09061F00E51994005003751C005C
:07062800E518C39AF518E57F
:05062F00199BF51922E2
:0C063400851A827440C0E0120117AA82EF
:0E06400015817B008A82C002C0031204F3D031
:0D064E0003D00290DE14E0FC54FEF0C3E582
:0A065B001A9440E51B94005003754B
:020665001C0077
:07066700E51AC39AF51AE53C
:05066E001B9BF51B229F
:0E06730075820012075790DE11E0FA30E40A9B
:0A06810090DE11E04480F01202291F
:0E068B0090DE11E0FA30E20A90DE11E054FB3E
:04069900F012022930
:08069D007401B51C03120531C4
:0C06A50090DE11E0FA30E016E4B51C0213
:0206B1008007C0
:0706B3007402B51C0B80036B
:0306BA000203BA7E
:0606BD0075820102057FB9
:0106C3002214
:0606C400758201020757D8
:0E06CA0075820512075790DE11E0FA30E50A3E
:0A06D80090DE11E054DFF012022959
:0806E2007401B51C030205EAD6
:0106EA0022ED
:0E06EB0075820412075790DE14E0FA30E60A1A
:0A06F90090DE14E054BFF012022955
:0C07030090DE14E0FA30E04BE51C700BB7
:04070F0075153A75AD
:0307130016F1F5E7
:0407160017751C0235
:0D071A0090DE17E0FA5302078A037A009080
:0C072700DE16E0FC7D00EA4CF51AEB4DFC
:05073300F51BE51A258D
:0407380018F518E5B3
:04073C001B3519F55B
:0507400019120634E56A
:050745001C700E75128E
:03074A003A7513EA
:04074D00F1F5147539
:050751001C010206CAB4
:010756002280
:07075700E58290DE0EF022A6
:0C075E00C020C0E0C0F0C082C083C00218
:0E076A00C003C004C005C006C007C000C00127
:0E077800C0D075D00090DE06E0FA30E2031229
:0207860002501F
:0B07880090DE02E0FA30E0031206737E
:0B07930090DE02E0FA30E1031206C421
:0B079E0090DE04E0FA30E4031206EBEA
:0B07A90090DE02E0FA30E5031206CA01
:0E07B400120240D0D0D001D000D007D006D025
:0E07C20005D004D003D002D083D082D0F0D076
:0407D000E0D0203223
:0E09D20012010002020000205104A7160001CD
:0E09E0000102030109023000020100C03209C9
:0E09EE00040000010202010007058103080059
:0E09FC000A09040100020A00000007050402B7
:0E0A0A004000000705850240000004030910AB
:0E0A18003C036B00650069006E006500630022
:0E0A26006800740065007200640065007500D1
:0E0A34007400730063006800650072004000EB
:0E0A420067006D00610069006C002E0063000B
:0E0A50006F006D000E034300430031003100C3
:0D0A5E00310031000803300030003100008D
:080A6B00000000000000000083
:0E0A7300000000000000000000000000000075
:0E0A8100000000000000000000000000000067
:0E0A8F00000000000000000000000000000059
:0E0A9D0000000000000000000000000000004B
:080AAB00000000000000000043
:0707D4001207DD1207E80225
:0207DB0007DF36
:0207DD000022F8
:0907DF007591FFD2A8439A012292
:0E07E80090DF0074FFF090DF01E4F090DF027C
:0D07F60074FFF090DF03E4F090DF04F0905A
:0E080300DF05F090DF077406F090DF08E4F0E8
:0D08110090DF0C7499F090DF0D7466F0908C
:0E081E00DF0E7433F090DF0F7461F090DF1086
:0E082C00747EF090DF117415F090DF127407E7
:0E083A00F090DF137430F090DF147418F0901B
:0E084800DF157417F090DF1A74B6F090DF1B06
:0E0856007411F090DF1C74E9F090DF1D742A1D
:0D086400F090DF1EE4F090DF1F741FF09095
:0E087100DF247431F090DF257409F090DF2E43
:0E087F00E4F090DF177407F090DF18E4F090BB
:0E088D00DF197491F090DF097426F090DF0AF5
:0E089B007430F090DF0B7470F090DF06740282
:0808A900F090DF2D74C0F02275
:0108B1003214
:0A08B200C0E0E5E930E70375E1045A
:0808BC00E5E930E60375E104F3
:0608C400E5E930E501004A
:0608CA00E5E930E4010045
:0608D000E5E930E3010040
:0608D600E5E930E201003B
:0608DC00E5E930E1010036
:0608E200E5E930E0010031
:0308E800D0E0322B
:0E08EB00758805759800759B0075C00075E84E
:0408F90000D2AF2258
:0308FD00C2AF2265
:0600BA00E478FFF6D8FD1A
:08009800797AE94401601B7A4A
:0500A00002900939780F
:0300A50000759350
:0A00A800F0E493F2A308B80002058B
:0800B20093D9F4DAF27593FF13
:0E09000020F71030F6118883A88220F507F644
:05090E00A883758300C1
:0109130022C1
:03091400F280F777
:02091700F022CC
:0800C0007800E84400600A79B1
:0300C8000075932D
:0600CB00F0E4F309D8FC8B
:0800D1007800E84400600C799E
:0B00D9000090F000E4F0A3D8FCD9FA7E
:03008B007581205C
:0A008E00120935E5826003020086C6
:0E09190020F71430F6148883A88220F507E634
:06092700A8837583002285
:03092D00E280F76E
:03093000E493222B
:02093300E022C0
:0409350075820022A5
:00000001FF
