:06000000020089020CF170
:01000B0032C2
:0100130032BA
:01001B0032B2
:0100230032AA
:01002B0032A2
:030033000208BB05
:01003B003292
:01004300328A
:03004B000201BDF2
:01005300327A
:01005B003272
:01006300326A
:01006B003262
:01007300325A
:01007B003252
:03008300020DBEAD
:030106000200866E
:030086000201096B
:1A01090012016112019512023112024012090812107D1201AF120E3880FBD0
:20012300C012858112AF82E51224FDF8C3EF9650048F828007E51224FDF88682D01222C081
:1E01430012858112AF82E51224FDF8C3E69F50048F828007E51224FDF88682D01222E3
:20016100AFBE74FB5FF5BEAFC674BF5FF5C6E5C630E6030080F853C6C0743F55C6FF600389
:140181000080F6744055BEFFBF400280030080F343BE042210
:0900E200E4F508F509F50AF50B37
:2001950075E40075E20075E54475E60075E70075DAED75DB02C2DED2B92275E40922E4F50D
:2001B50008F509F50AF50B22C0E0C007C006C005C004C0D075D000AEDA7F00ACDB8C05E475
:2001D5002EFEED3FFFE4FDFC74EE2EFE74023FE43DE43C8EDAAEDA7F00ACDB8C05E42EFEBB
:2001F500ED3FFFE4FDFC74EE2E74023FFFE43DE43C8FDB74012508F508E43509F509E4351B
:1C0215000AF50AE4350BF50BAFE474DF5FF5E4D0D0D004D005D006D007D0E032AA
:0F02310043FE0202023AD29122C29122B29122DE
:0900EB00753900753A00753B00FF
:2002400012025212025875820012060E1202E50202FB43FE01D2902243BE8022AFBE747FEE
:200260005FF5BE2290DE11E0FF74204FF090FFFF02027A753900753A0022AE82AF83C00765
:20028000C006120290D006D0078E828F830202A2AE82AF83EE4F6006BEFF06BFFF03753B46
:2002A0000022AE82AF83EE4F6006BEFF09BFFF06752B00752C00BE0405BF00028006BEFF81
:2002C00009BFFF06752D00752E00BE0505BF00028006BEFF0FBFFF0C752F00753000753178
:2002E000007532002290DE077421F090DE097410F090DE0B7404F0439A022290DE06E4F026
:2003000090DE02F090DE04F0C2E822E58290DE0EF02290DE0EE0F58222AF82C00712031246
:20032000AE82D007EE2E2420F582E434DEF583EFF022120312E58225822420F582E434DE8A
:20034000F583E0F58222AF82E52CFE04F52CEE2400F582E434F0F583EFF022AF828F061F58
:20036000EE6023AC33AD34AE358C828D838EF01210ADFC0533E4B5330205348C82C00712DC
:200380000319D00780D722AF828F061FEE602FAC36AD37AE38C007C006C005C00412033286
:2003A000AB82D004D005D006D0078C828D838EF0EB1210920536E4B536CF053780CB228578
:2003C0002C827420C0E0120123AF8215818F82C00712035BD00790DE11E0FE74024EF0E529
:2003E0002CC39FF52CBF2000500F90DE11E0FF74084FF090000002029022AF8290DE16E01C
:20040000FE852B82C007C00612012315817420C0E0120123AE8215818E82C006120387D0E1
:2004200006D00790DE11E0FD74404DF0E52BC39EFE8E2B7012EF600990DE11E0FF74084F67
:20044000F09000000202902275820512030B90DE11E0FF74014FF0AE2FAF308E318F327587
:200460002F007530002275820412030B90DE14E0FF74FE5FF02275820512030B90DE11E0AC
:20048000FF30E0030080F522AF82C007120476D0078F821203197401252FFEE43530FF8E7C
:2004A0002F8F30BE4006BF000302044822758200120488E52F4530700C7440B53106E4B545
:2004C00032028001221204760204481204880204ADC012858112C082C083C0F07C00E51288
:2004E00024FDF886038B021BEA602CC0038C020CA81208EA26FAE40836FB0886078A828BCA
:20050000838FF01210ADF582C004C003120488D003D004D00380CE1204AD851281D01222C7
:20052000E52D452E703B75820412030B90DE14E0FF20E00490FFFF2290DE17E0FF53070796
:200540008F067F0090DE16E0FD7C004207EC42068F2D8E2EE52D452E700712046690FFFFAF
:2005600022120332AF82E52D24FFFDE52E34FFFE8D2D8E2EED4E7007C007120466D0077EAB
:20058000008F828E8322120520AE82AF838E048F05BEFF06BFFF030080EC8C82221205869B
:2005A000AE827F00C007C006120586AD82D006D0077C00ED2FF582EC3EF5832212059DAE51
:2005C00082AF838F048E057F007E00C007C006C005C00412059DAA82AB83D004D005D006A1
:2005E000D0078A008B01E4FAFBE82EFEE93FFFEA3DFDEB3C8E828F838DF022AF8290DE004F
:20060000EFF090DE00E0FEB50701220080F4AF828F2175820412030B90DE10E4F090DE138D
:200620007408F075820512030B90DE107408F090DE13E4F022852182020346C01285811274
:20064000058105810581AE82AC837F00A8120876420876F0087600A81208868208868308E1
:2006600086F01210ADFA70030206E0C002A81208740126FAE40836FD0886078A828D838F68
:20068000F01210ADFAB504028004D0028036D0028E071EEF702EBC021CA81208740226FC94
:2006A000E40836FD0886078C828D838FF01210ADFC8C2C80028A2CA81208863308863408E9
:2006C0008635801FA8120886820886830886F01210ADFFA81208EF26F6E40836F602065755
:2006E000120264851281D01222753623753700753840752B087582000203FAE529452A6084
:200700002C74805523FFFEBE00028010BF80277533007534F0753500753B012275360275AE
:2007200037F0753800AF298F2B753B022290DE11E0FF74084FF0221206E9E52B600122129E
:2007400006FBAF2374605FFE60030207E053071FBF0002800EBF01028054BF02030207D04E
:200760000207E0AF24BF00028014BF0502801DBF06028021BF08028027BF09648027758263
:20078000001203467582001203468054AF258F821205FB804B85258285268312063B8040A9
:2007A000120635803BAF258F8212060E8032AF24BF00028005BF0A28800E7582001203468A
:2007C00075820012034680187582001203468010E4B5240C758200120346758200120346E0
:2007E0007401B53B13AF29852C82C007120123AF8215818F2C0203BF2275820012030B906A
:20080000DE11E0FF30E40F90DE11E0FF74804FF090000012027A90DE11E0FF30E20F90DE4B
:2008200011E0FF74FB5FF090000012027A7401B53B031203BF90DE11E0FF30E014E4B53B5A
:2008400002800B7402B53B097582010203FA0207372275820412030B90DE14E0FF30E60FA2
:2008600090DE14E0FF74BF5FF090000402027A2275820512030B90DE11E0FF30E50F90DE55
:2008800011E0FF74DF5FF090000502027A2290DE06E0FF30E2091202E590FFFF12027AE529
:2008A00039FF30E0031207F9E53A30E403120852E53930E503120870020273C020C0E0C0C2
:2008C000F0C082C083C007C006C005C004C003C002C001C000C0D075D00090DE02E04239E7
:2008E00090DE04E0423AC2E812088ED0D0D000D001D002D003D004D005D006D007D083D079
:0809000082D0F0D0E0D02032DB
:2010F60012010002020000205104A71600010102030109022000020100C03209040000025A
:201116000A0000000705040240000007058502400000040309103C036B00650069006E0084
:20113600650063006800740065007200640065007500740073006300680065007200400017
:2011560067006D00610069006C002E0063006F006D000E03430043003100310031003100A7
:09117600080330003000310000D4
:1200F400750C00750D00750E00750F00751000751100E5
:2009080012094702090E7591FFD2A8439A012290DF3BE0FFBF0101220080F475E104020990
:200928001775E10290DF3BE0FFBF0D01220080F475E10390DF3BE0FFBF1301220080F49079
:20094800DF0074FFF090DF01E4F090DF0214F090DF03E4F090DF04F090DF05F090DF07749D
:2009680006F090DF08E4F090DF0C7499F090DF0DF4F090DF0E03F090DF0F7461F090DF1024
:20098800747EF090DF117415F090DF127407F090DF137430F090DF1403F090DF1514F090E4
:2009A800DF1A74B6F090DF1B7411F090DF1C74E9F090DF1D742AF090DF1EE4F090DF1F74C8
:2009C8001FF090DF247431F090DF257409F090DF2EE4F090DF177407F090DF18E4F090DFAB
:2009E800197491F090DF097426F090DF0A7430F090DF0B7470F090DF067402F090DF2D7499
:200A0800C0F022AF827C007D007E00EF24DC5003020BA4EF240A83F582EF242883F583E430
:200A280073717A838C959EA7B0B9C2CBD4DDE6EFF8010A131C252E363E464E565E666E7660
:200A48007E868E969E0A0A0A0A0A0A0A0A0A0A0A0A0A0A0A0A0B0B0B0B0B0B0B0B0B0B0BAF
:200A68000B0B0B0B0B0B0B0B0B7C007DDF7E00020BA47C017DDF7E00020BA47C027DDF7EA4
:200A880000020BA47C037DDF7E00020BA47C047DDF7E00020BA47C057DDF7E00020BA47C00
:200AA800077DDF7E00020BA47C087DDF7E00020BA47C0C7DDF7E00020BA47C0D7DDF7E0017
:200AC800020BA47C0E7DDF7E00020BA47C0F7DDF7E00020BA47C107DDF7E00020BA47C118E
:200AE8007DDF7E00020BA47C127DDF7E00020BA47C137DDF7E00020BA47C147DDF7E0002C4
:200B08000BA47C167DDF7E00020BA47C157DDF7E00020BA47C1A7DDF7E00020BA47C1B7DB0
:200B2800DF7E00020BA47C1C7DDF7E00806E7C1D7DDF7E0080667C1E7DDF7E00805E7C1FF9
:200B48007DDF7E0080567C247DDF7E00804E7C257DDF7E0080467C2D7DDF7E00803E7C2E69
:200B68007DDF7E0080367C177DDF7E00802E7C187DDF7E0080267C197DDF7E00801E7C091C
:200B88007DDF7E0080167C0A7DDF7E00800E7C0B7DDF7E0080067C067DDF7E008C828D838E
:200BA8008EF022C012858112AF82C007120923D00790DF06EFF0750C001209291201B39027
:200BC800F0CDE0FF7E0074CCB50E02805EC3EE950C502CEE700EE50C24FD5008EF70057593
:200BE8000EBB8047EE24CBF582E434F0F583E0FD0EEE24FD50D0EEB50CCCED70C9802CE53D
:200C08000C70C3E51224FAF8E608460846084660B5E51224FAF8C3E6950808E6950908E6CE
:200C2800950A08E6950B509E750EAA120923E50E700DC00C90F0CB75F0001204D115818538
:200C48000E82D01222C012858112AF82C007120923D00790DF06EFF0750D00750F00751022
:200C680000E50D24074007120586AF8280027F00AE0D050DEE24C3F582E434F1F583EFF0C0
:200C8800EF70DE120938120917E51224FDF886078F061FEE6041E51224F9F8E6084608461C
:200CA80008466021C0071201B3D007E51224F9F8C3E50896E5090896E50A0896E50B089600
:200CC80050030080E6750F00751000C007120938120917D00780B9D01222120923750F0028
:200CE800751000120938020917C020C0E0C0F0C082C083C007C006C005C004C003C002C0E2
:200D080001C000C0D075D00090DF3BE0FFBF0D028008BF1302805B020DA1AFD9E50C7035D9
:200D2800E51104F582C0077401C0E0120142858211158190F0CBE511F090DF3AE0FE74012E
:200D4800C0E08E82120142AE821581D00790F0CCEEF0750C027408250C4012AE0C050CEE84
:200D680024CBF582E434F0F583EFF0802C750ECC8027C3E50F950D5013AF0F050FEF24C3A0
:200D8800F582E434F1F583E0F5D9800D75D90005107402B51003120923D0D0D000D001D028
:200DA80002D003D004D005D006D007D083D082D0F0D0E0D02032C0E0C007C0D075D000E5A8
:200DC800E930E70A75E104AFE9747F5FF5E9E5E930E60A75E104AFE974BF5FF5E9E5E93091
:200DE800E507AFE974DF5FF5E9E5E930E407AFE974EF5FF5E9E5E930E307AFE974F75FF577
:200E0800E9E5E930E207AFE974FB5FF5E9E5E930E107AFE974FD5FF5E9E5E9FF30E007AFF7
:100E2800E974FE5FF5E9759B00D0D0D007D0E032B9
:20117F00000000000000000000000000000000000000000000000000000000000000000050
:20119F00000000000000000000000000000000000000000000000000000000000000000030
:2011BF00000000000000000000000000000000000000000000000000000000000000000010
:2011DF000000000000000000000000000000000000000000000000000000000000000000F0
:2011FF000000000000000000000000000000000000000000000000000000000000000000D0
:20121F000000000000000000000000000000000000000000000000000000000000000000AF
:20123F0000000000000000000000000000000000000000000000000000000000000000008F
:20125F0000000000000000000000000000000000000000000000000000000000000000006F
:20127F0000000000000000000000000000000000000000000000000000000000000000004F
:20129F0000000000000000000000000000000000000000000000000000000000000000002F
:2012BF0000000000000000000000000000000000000000000000000000000000000000000F
:2012DF000000000000000000000000000000000000000000000000000000000000000000EF
:2012FF000000000000000000000000000000000000000000000000000000000000000000CF
:20131F000000000000000000000000000000000000000000000000000000000000000000AE
:20133F0000000000000000000000000000000000000000000000000000000000000000008E
:10135F00000000000000000000000000000000007E
:200E3800120586AF82BF00028019BF01028024BF0202802FBF0302802DBF3202802BBF6369
:200E58002E80297406C0E09010CD75F0801204D1158122741DC0E09010D475F0801204D127
:200E7800158122020E97020EA5020ECC0210277403C0E09010F275F0801204D115812212F2
:200E98000586120A0B1210ADF5820204CB120586AF82C007120586AE82D0078F82C006124F
:200EB8000A0BAC82AD83AFF0D0068C828D838FF0EE021092120586AF82C0071205BCAB826E
:200ED800AC83ADF0FED007C003C004C005C0068F82120BABAF82E58124FCF581EFFE6005EF
:200EF8008E820204CB22120586AF82C007120586AE82C0061205BCAA82AB83ACF0FDD00613
:200F1800D007C002C003C004C005C0068F82120C4DE58124FBF58122C012E581F512240B07
:200F3800F581120586AF82A81208A607120586A8120808A6821205BCA812080808A6820882
:200F5800A68308A6F008F6120586AE82E5122407F8A6061205BCAB82AC83ADF0FFE512243B
:200F780008F8A60308A60408A60508A607120586AA828A07C007E5122403F8E6C0E008E6EB
:200F9800C0E008E6C0E008E6C0E0A8120808E6C0E0A812088682120C4DE58124FBF581E518
:200FB800122408F8E6C0E008E6C0E008E6C0E008E6C0E0E5122407F88682120BABAA82E5B8
:200FD8008124FCF581D0078F06BAAA35EE6032C006120CE2E5122408F8E6C0E008E6C0E068
:200FF80008E6C0E008E6C0E0E5122407F88682120BABAF82E58124FCF581D0068F021E80A1
:20101800C8EA60058A821204CB851281D01222C012E581F5122404F5811205BCAC82AD838A
:20103800AEF0FFA81208A60408A60508A60608A607A8120808080886078F821204CBA81260
:2010580008080886068E821204CBA812080886058D821204CBA8120886048C821204CB85DE
:051078001281D01222DC
:2010CD00434331313131006B65696E65636874657264657574736368657240676D61696C86
:0910ED002E636F6D004E2F4100CF
:15107D00758805759800759B0075C00075E800D2AF22C2AF2277
:0600B800E478FFF6D8FD1C
:200096007979E94402601B7A039010F678427593F0E493F2A308B800020593D9F4DAF27575
:0200B60093FFB6
:1B10920020F71130F6138883A88220F509F6A8837583002280FEF280F5F0225D
:2000BE007800E84400600A79007593F0E4F309D8FC7842E84400600C790190F000E4F0A32C
:0400DE00D8FCD9FA77
:0D00890075813B1210C9E5826003020086FC
:1C10AD0020F71430F6148883A88220F507E6A88375830022E280F7E49322E02252
:0410C900758200220A
:00000001FF
