:06000000020089020A79EA
:01000B0032C2
:0100130032BA
:01001B0032B2
:0100230032AA
:01002B0032A2
:030033000208437D
:01003B003292
:01004300328A
:03004B000201B4FB
:01005300327A
:01005B003272
:01006300326A
:01006B003262
:01007300325A
:01007B003252
:03008300020B1D50
:0300FD0002008678
:0300860002010074
:1A01000012015812018C120228120237120890120C2E1201A6120B9780FB76
:20011A00C00F85810FAF82E50F24FDF8C3EF9650048F828007E50F24FDF88682D00F22C099
:1E013A000F85810FAF82E50F24FDF8C3E69F50048F828007E50F24FDF88682D00F22FB
:20015800AFBE74FB5FF5BEAFC674BF5FF5C6E5C630E6030080F853C6C0743F55C6FF600392
:140178000080F6744055BEFFBF400280030080F343BE042219
:0900E200E4F508F509F50AF50B37
:20018C0075E40075E20075E54475E60075E70075DAED75DB02C2DED2B92275E40922E4F516
:2001AC0008F509F50AF50B22C0E0C007C006C005C004C0D075D000AEDA7F00ACDB8C05E47E
:2001CC002EFEED3FFFE4FDFC74EE2EFE74023FE43DE43C8EDAAEDA7F00ACDB8C05E42EFEC4
:2001EC00ED3FFFE4FDFC74EE2E74023FFFE43DE43C8FDB74012508F508E43509F509E43524
:1C020C000AF50AE4350BF50BAFE474DF5FF5E4D0D0D004D005D006D007D0E032B3
:0F02280043FE02020231D29122C29122B29122F0
:0900EB00753900753A00753B00FF
:2002370012024912024F7582001205961202DC0202F243FE01D2902243BE8022AFBE747F94
:200257005FF5BE2290DE11E0FF74204FF090FFFF020271753900753A0022AE82AF83C00777
:20027700C006120287D006D0078E828F83020299AE82AF83EE4F6006BEFF06BFFF03753B61
:200297000022AE82AF83EE4F6006BEFF09BFFF06752B00752C00BE0405BF00028006BEFF8A
:2002B70009BFFF06752D00752E00BE0505BF00028006BEFF0FBFFF0C752F00753000753181
:2002D700007532002290DE077421F090DE097410F090DE0B7404F0439A022290DE06E4F02F
:2002F70090DE02F090DE04F0C2E822E58290DE0EF02290DE0EE0F58222AF82C00712030959
:20031700AE82D007EE2E2420F582E434DEF583EFF022120309E58225822420F582E434DE9C
:20033700F583E0F58222AF82E52CFE04F52CEE2400F582E434F0F583EFF022AF828F061F61
:20035700EE6023AC33AD34AE358C828D838EF0120C5EFC0533E4B5330205348C82C0071238
:200377000310D00780D722AF828F061FEE602FAC36AD37AE38C007C006C005C004120329A1
:20039700AB82D004D005D006D0078C828D838EF0EB120C430536E4B536CF053780CB2285D4
:2003B7002C827420C0E012011AAF8215818F82C007120352D00790DE11E0FE74024EF0E544
:2003D7002CC39FF52CBF2000500F90DE11E0FF74084FF090000002028722AF8290DE16E02E
:2003F700FE852B82C007C00612011A15817420C0E012011AAE8215818E82C00612037ED006
:2004170006D00790DE11E0FD74404DF0E52BC39EFE8E2B7012EF600990DE11E0FF74084F70
:20043700F09000000202872275820512030290DE11E0FF74014FF0AE2FAF308E318F3275A2
:200457002F007530002275820412030290DE14E0FF74FE5FF02275820512030290DE11E0C7
:20047700FF30E0030080F522AF82C00712046DD0078F821203107401252FFEE43530FF8E97
:200497002F8F30BE4006BF000302043F2275820012047FE52F4530700C7440B53106E4B560
:2004B700320280012212046D02043F12047F0204A4C00F85810FC082C083C0F07C008C0323
:2004D7000CA80F08EB26FAE40836FB0886078A828B838FF0120C5EFAFF600B8F82C004121D
:2004F700047FD00480D81204A4850F81D00F22E52D452E703B75820412030290DE14E0FFC3
:2005170020E00490FFFF2290DE17E0FF5307078F067F0090DE16E0FD7C004207EC42068F4E
:200537002D8E2EE52D452E700712045D90FFFF22120329AF82E52D24FFFDE52E34FFFE8D2A
:200557002D8E2EED4E7007C00712045DD0077E008F828E8322120506AE82AF838E048F0571
:20057700BEFF06BFFF030080EC8C8222AF8290DE00EFF090DE00E0FEB50701220080F4AF78
:20059700828F2175820412030290DE10E4F090DE137408F075820512030290DE107408F0C4
:2005B70090DE13E4F02285218202033DC00F85810F058105810581AE82AC837F00A80F0830
:2005D70076420876F0087600A80F0886820886830886F0120C5EFA7003020668C002A80F38
:2005F70008740126FAE40836FD0886078A828D838FF0120C5EFAB504028004D0028036D0EB
:20061700028E071EEF702EBC021CA80F08740226FCE40836FD0886078C828D838FF0120CE1
:200637005EFC8C2C80028A2CA80F088633088634088635801FA80F0886820886830886F067
:20065700120C5EFFA80F08EF26F6E40836F60205DF12025B850F81D00F2275362375370041
:20067700753840752B087582000203F1E529452A602C74805523FFFEBE00028010BF8027B9
:200697007533007534F0753500753B01227536027537F0753800AF298F2B753B022290DEBB
:2006B70011E0FF74084FF022120671E52B600122120683AF2374605FFE600302076853076E
:2006D7001FBF0002800EBF01028054BF0203020758020768AF24BF00028014BF0502801DDE
:2006F700BF06028021BF08028027BF0964802775820012033D75820012033D8054AF258F6F
:2007170082120583804B8525828526831205C380401205BD803BAF258F821205968032AF65
:2007370024BF00028005BF0A28800E75820012033D75820012033D801875820012033D80C6
:2007570010E4B5240C75820012033D75820012033D7401B53B13AF29852C82C00712011AA0
:20077700AF8215818F2C0203B62275820012030290DE11E0FF30E40F90DE11E0FF74804FD3
:20079700F090000012027190DE11E0FF30E20F90DE11E0FF74FB5FF0900000120271740118
:2007B700B53B031203B690DE11E0FF30E014E4B53B02800B7402B53B097582010203F10222
:2007D70006BF2275820412030290DE14E0FF30E60F90DE14E0FF74BF5FF090000402027197
:2007F7002275820512030290DE11E0FF30E50F90DE11E0FF74DF5FF090000502027122906F
:20081700DE06E0FF30E2091202DC90FFFF120271E539FF30E003120781E53A30E4031207C7
:20083700DAE53930E5031207F802026AC020C0E0C0F0C082C083C007C006C005C004C00384
:20085700C002C001C000C0D075D00090DE02E0423990DE04E0423AC2E8120816D0D0D00086
:19087700D001D002D003D004D005D006D007D083D082D0F0D0E0D0203265
:200D170012010002020000205104A71600010102030109022000020100C03209040000023C
:200D37000A0000000705040240000007058502400000040309103C036B00650069006E0067
:200D57006500630068007400650072006400650075007400730063006800650072004000FA
:200D770067006D00610069006C002E0063006F006D000E034300430031003100310031008A
:090D9700080330003000310000B7
:0900F400750C00750D00750E007D
:200890001208CC0208967591FFD2A8439A012275E10490DF3BE0FFBF0101220080F475E1B3
:2008B0000290DF3BE0FFBF0D01220080F475E10390DF3BE0FFBF1301220080F490DF00740C
:2008D000FFF090DF01E4F090DF0214F090DF03E4F090DF04F090DF05F090DF077406F090E3
:2008F000DF08E4F090DF0C7499F090DF0DF4F090DF0E03F090DF0F7461F090DF10747EF041
:2009100090DF117415F090DF127407F090DF137430F090DF1403F090DF1514F090DF1A74D1
:20093000B6F090DF1B7411F090DF1C74E9F090DF1D742AF090DF1EE4F090DF1F741FF0900E
:20095000DF247431F090DF257409F090DF2EE4F090DF177407F090DF18E4F090DF197491A4
:20097000F090DF097426F090DF0A7430F090DF0B7470F090DF067402F090DF2D74C0F0225D
:20099000C00F85810FAF827E00C007C006E50F24FAF8E6C0E008E6C0E008E6C0E008E6C0CD
:2009B000E09003E8E4F5F0120C7AAA82AB83ACF0FDE58124FCF581E50F24FAF8A60208A61C
:2009D0000308A60408A6051201AA12089FD006D00790DF06EFF0750C00C0061208AED00643
:2009F00090F0CDE0FF7D00C3ED950C502BED700DE50C24FD5007EF70047EBB8046ED24CB61
:200A1000F582E434F0F583E0FC0DED24FD50D8EDB50CD4EC70D1802BE50C70CBE50F24FA18
:200A3000F8E608460846084660BDE50F24FAF8C3E6950808E6950908E6950A08E6950B507A
:200A5000A67EAAC00612089FD006EE700A90F0CBF5F01204C880058E821204C2D00F22126D
:200A7000089F1208BD75820022C020C0E0C0F0C082C083C007C006C005C004C003C002C0BF
:200A900001C000C0D075D00090DF3BE0FFBF0D028005BF135B8056AFD9E50C7035E50E04BC
:200AB000F582C0077401C0E012013985820E158190F0CBE50EF090DF3AE0FE7401C0E08E84
:200AD00082120139AE821581D00790F0CCEEF0750C027440250C4012AE0C050CEE24CBF51A
:200AF00082E434F0F583EFF0800600800375D900D0D0D000D001D002D003D004D005D00649
:200B1000D007D083D082D0F0D0E0D02032C0E0C007C0D075D000E5E930E70A75E104AFE99A
:200B3000747F5FF5E9E5E930E60A75E104AFE974BF5FF5E9E5E930E507AFE974DF5FF5E913
:200B5000E5E930E407AFE974EF5FF5E9E5E930E307AFE974F75FF5E9E5E930E207AFE97449
:200B7000FB5FF5E9E5E930E107AFE974FD5FF5E9E5E9FF30E007AFE974FE5FF5E9759B00C6
:070B9000D0D0D007D0E03205
:200DA000000000000000000000000000000000000000000000000000000000000000000033
:200DC000000000000000000000000000000000000000000000000000000000000000000013
:200DE0000000000000000000000000000000000000000000000000000000000000000000F3
:200E00000000000000000000000000000000000000000000000000000000000000000000D2
:200E20000000000000000000000000000000000000000000000000000000000000000000B2
:200E4000000000000000000000000000000000000000000000000000000000000000000092
:200E6000000000000000000000000000000000000000000000000000000000000000000072
:200E8000000000000000000000000000000000000000000000000000000000000000000052
:200EA000000000000000000000000000000000000000000000000000000000000000000032
:200EC000000000000000000000000000000000000000000000000000000000000000000012
:200EE0000000000000000000000000000000000000000000000000000000000000000000F2
:200F00000000000000000000000000000000000000000000000000000000000000000000D1
:200B970012056CAF82BF00028014BF01028018BF0202801CBF0302801ABF321D8018900CDC
:200BB700EE75F0800204C8900CF575F0800204C8020BD9020BEF020C06900D1375F08002AC
:200BD70004C812056CAF82BF000790DF00E0FF80027F008F820204C212056CAF82C0071203
:200BF700056CAE82D007BF000590DF00EEF02212056CAF82C00712056CAE82D0077D007C35
:170C1700007B00C006C005C004C0038F82120990E58124FCF581225F
:200CEE00434331313131006B65696E65636874657264657574736368657240676D61696C69
:090D0E002E636F6D004E2F4100B1
:150C2E00758805759800759B0075C00075E800D2AF22C2AF22CA
:0600B800E478FFF6D8FD1C
:200096007909E94402601B7A03900D1778427593F0E493F2A308B800020593D9F4DAF275C7
:0200B60093FFB6
:1B0C430020F71130F6138883A88220F509F6A8837583002280FEF280F5F022B0
:2000BE007800E84400600A79007593F0E4F309D8FC7842E84400600C790190F000E4F0A32C
:0400DE00D8FCD9FA77
:0D00890075813B120CEAE5826003020086DF
:1C0C5E0020F71430F6148883A88220F507E6A88375830022E280F7E49322E022A5
:200C7A00AAF0FB74FB2581F8E58286F0A9F008A4FCADF0E58389F0A42DFDE435F0FEE582E0
:200C9A0086F0A42DFDE5F03EFEE433FFEA89F0A42EFEE5F03FFFE58386F0A42EFEE5F03FC7
:200CBA00FFE5820886F0A42EFEE5F03FFFEB89F0A42FFFE58386F0A42FFFEA1886F0A42F22
:100CDA00FFE582080886F0A42F8EF08D838C82228D
:040CEA0075820022ED
:00000001FF
