:040000000200533275
:01000B0032C2
:0100130032BA
:01001B0032B2
:0100230032AA
:01002B0032A2
:0300330002069929
:01003B003292
:01004300328A
:03004B000201644B
:0300BB0002004EF2
:05004E001200BE80FE5F
:0700BE0012010E12014612AF
:0600C50001BB12070F123F
:0500CB0001600201CA02
:0E075D0012010002020000205104A716000144
:0E076B000102030109023000020100C0320940
:0E0779000400000102020100070581030800D0
:0E0787000A09040100020A000000070504022E
:0E079500400000070585024000000403091023
:0E07A3003C036B00650069006E00650063009A
:0E07B100680074006500720064006500750049
:0E07BF00740073006300680065007200400063
:0E07CD0067006D00610069006C002E00630083
:0E07DB006F006D000E0343004300310031003B
:0D07E9003100310008033000300031000005
:0800D000C008858108AA82A87E
:0C00D80008181818C3EA9650048A8280A9
:0100E4000714
:0700E500A808181818868214
:0300EC00D0082217
:0800EF00C008858108AA82A85F
:0C00F70008181818C3E69A50048A82808A
:0101030007F4
:07010400A8081818188682F4
:03010B00D00822F7
:06010E0053BEFB53C6BF07
:08011400E5C630E6030080F8A7
:0C011C0074C055C6F5F0740845F0F5C637
:0A012800743F55C6FABA08028003BE
:030132000080F357
:0A013500744055BEFABA4002800380
:03013F000080F34A
:0401420043BE042292
:0E01460075E40075E20075E54475E60075E7A6
:0C0154000075DA9E75DB24C2DED2B922F1
:0401600075E40D2213
:0E016400C0E0C002C003C004C005C0D075D00A
:0E01720000AADA7B00ADDBE42AFAED3BFBE4E9
:0E018000FCFD749F2AFA74243BE43CE43D8AA3
:0E018E00DAAADA7B00ADDBE42AFAED3BFBE4F3
:0E019C00FCFD749F2A74243BFBE43CE43D8B85
:0E01AA00DB53E4DFD0D0D005D004D003D00268
:0301B800D0E03262
:0601BB0043FE020201C434
:0301C100D29122B6
:0301C400C29122C3
:0301C700B29122D0
:0700AC00753100753300758A
:0600B30073007574007576
:0200B9007500D0
:0A01CA001201D91203D07582001251
:0501D40003F60203E048
:0901D90043BE8043FE01D29022D6
:0701E20075730075740075D0
:0301E9007500227C
:0B01EC0090DE11E04420F07575032246
:0E01F7007A0090DE0EE0FB600FBB010280126A
:05020500BB0402801D96
:05020A00BB052080107F
:08020F0090DE20E0FBFA8016EE
:0802170090DE22E0FBFA800EEC
:08021F0090DE28E0FBFA8006E6
:0602270090DE2AE0FBFA64
:03022D008A8222A0
:0E023000AA8290DE0EE0FB600FBB0102801080
:05023E00BB0402801763
:05024300BB0519800C51
:0602480090DE20EAF02226
:06024E0090DE22EAF0221E
:0602540090DE28EAF02212
:05025A0090DE2AEAF02D
:01025F00227C
:08026000AA82AB730573EB24C5
:0502680031F8A602229E
:0C026D00AA737420C0E08A821200D0AB9B
:050279008215818B02DB
:0B027E0090DE11E0FB30E1030080F592
:020289007B00F8
:0A028B00C3EB9A5028AC2BAD2CAE4B
:0C0295002D8C828D838EF012073DFC053D
:0602A1002BE4B52B020561
:0102A7002C2A
:0E02A8008C82C002C003120230D003D0020BC1
:0202B60080D3F3
:0C02B80090DE11E0FB4402F074E02573BE
:0C02C400400B90DE11E0FB4408F0757563
:0102D000002D
:0702D100E573C39AF57322E7
:0C02D800AA82AB74C0027420C0E08B82CC
:0E02E4001200D0AC8215818C0390DE16E0C0B3
:0E02F200E08B821200D0AC821581D0028C030A
:020300007C007F
:0A030200C3EC9B5038C002AD2EAED4
:0A030C002FAF30C003C004C005C0CD
:0E03160006C0071201F7AA82D007D006D00554
:0E032400D004D0038D828E838FF0EA1207245E
:07033200052EE4B52E0205C3
:010339002F94
:05033A000CD00280C39D
:0C033F0090DE11E0FC4440F074E02574F6
:0C034B004020AC747D008B067F00ECC3EA
:0E0357009EFCED9FFD4C700EEA600890DE11DA
:05036500E0FA4408F07D
:03036A00757500A6
:07036D00E574C39BF5742247
:04037400AA747B00EC
:0A037800C3EB9A5034AC2EAD2FAE4B
:0C03820030C002C003C004C005C0061259
:0E038E0001F7AF82D006D005D004D003D00214
:0C039C008C828D838EF0EF120724052E5A
:0603A800E4B52E02052F52
:0303AE000B80C7FA
:0C03B10090DE14E0FB54FEF074C02574D4
:0C03BD00400AC0021201C7D00275750092
:0703C900E574C39AF57422EC
:0E03D00090DE02E4F090DE04F090DE06F0C253
:0203DE00E82213
:0D03E00090DE077423F090DE097410F09099
:0903ED00DE0B7404F0439A0222B5
:0B03F600AA828A2175820112069290F3
:0E040100DE107401F090DE137401F0758204B9
:0E040F0012069290DE10E4F090DE137408F0F6
:0D041D0075820512069290DE107408F090B2
:05042A00DE13E4F022E6
:06042F008521820202603B
:07043500AA8290DE00EAF04C
:09043C0090DE00E0FBB502012294
:030445000080F440
:0A044800C0088581080581058105C3
:0B04520081AA82AD837B00A808087619
:07045D00990876F008760013
:0C046400A8080886820886830886F0122B
:08047000073DFF70030204ECDC
:0C047800C007A80808740126FFE408363D
:0E048400FC0886038F828C838BF012073DFFED
:05049200B50502800425
:04049700D0078035D5
:0C049B00D0078A031AEB702DBD021BA8CD
:0C04A7000808740226FBE40836FC0886F6
:0C04B300058B828C838DF012073DF573E1
:0204BF008002B9
:0204C1008F7337
:0704C300A80808862B08863B
:0604CA002C08862D801FA6
:0C04D000A8080886820886830886F012BF
:0C04DC00073DFBA80808EB26F6E40836F4
:0404E800F6020464B0
:0304EC001201EC0E
:0604EF00850881D00822FF
:0404F500752E2375C8
:0604F9002F007530407574
:0804FF0074087582000202D8A6
:09050700E529452A60277480559E
:0905100023FA6010BA8025752B56
:0505190031752C007596
:06051E002D40757501225D
:04052400752E337588
:060528002F007530408534
:03052E00297475B8
:030531007502222E
:0805340090DE11E0FA4408F02A
:01053C00229C
:08053D001204F5E574600122CF
:0C054500120507AA2374605AFB60030231
:0205510005E4BF
:0805530053021FBA0002800EE2
:05055B00BA010280520C
:06056000BA02030205D4FB
:030566000205E4A7
:07056900AA24BA000280146D
:05057000BA0502801D28
:05057500BA060280201F
:05057A00BA0802802612
:05057F00BA09628026AC
:0E0584007582001202607582001202608052C1
:08059200852582120435804A20
:07059A0085258285268312EE
:0405A1000448803F4B
:0505A50012042F803A52
:0805AA008525821203F6803260
:0705B200AA24BA0002800533
:0505B900BA0A28800EC3
:0E05BE007582001202607582001202608018C1
:0805CC0075820012026080102C
:0C05D400E4B5240C7582001202607582F0
:0405E00000120260A3
:0A05E4007401B57512AA29C0028542
:0705EE0073821200D0858228
:0605F50073158102026D86
:0105FB0022DD
:0E05FC0075820012069290DE11E0FA30E40AD9
:0A060A0090DE11E04480F01201E2DE
:0E06140090DE11E0FA30E20A90DE11E054FBB5
:04062200F01201E2EF
:080626007401B5750312026DA9
:0C062E0090DE11E0FA30E016E4B5750231
:02063A00800737
:07063C007402B5750B800389
:0306430002053D70
:060646007582010202D8DA
:01064C00228B
:06064D0075820102069215
:060653007582050206920B
:0E06590075820412069290DE14E0FA30E60A72
:0A06670090DE14E054BFF01201E22F
:0C06710090DE14E0FA30E018E575700B24
:04067D00752E33F5AE
:050681002F75304075EB
:020686007502FB
:0906880090DE16E0F57402037423
:010691002246
:07069200E58290DE0EF0226C
:0C069900C020C0E0C0F0C082C083C002DE
:0E06A500C003C004C005C006C007C000C001ED
:0E06B300C0D075D00090DE06E0FA30E20312EF
:0206C10003E054
:0B06C30090DE02E0FA30E0031205FCBC
:0B06CE0090DE02E0FA30E10312064D5E
:0B06D90090DE04E0FA30E40312065942
:0B06E40090DE02E0FA30E5031206533E
:0E06EF001203D0D0D0D001D000D007D006D05A
:0E06FD0005D004D003D002D083D082D0F0D03C
:04070B00E0D02032E8
:0E07F60012010002020000205104A7160001AB
:0E0804000102030109023000020100C03209A6
:0E081200040000010202010007058103080036
:0E0820000A09040100020A0000000705040294
:0E082E00400000070585024000000403091089
:0E083C003C036B00650069006E006500630000
:0E084A006800740065007200640065007500AF
:0E0858007400730063006800650072004000C9
:0E08660067006D00610069006C002E006300E9
:0E0874006F006D000E034300430031003100A1
:0D088200310031000803300030003100006B
:0E070F00758805759800759B0075C00075E82B
:04071D0000D2AF2235
:03072100C2AF2242
:06008200E478FFF6D8FD52
:080060007932E94401601B7ACA
:050068000290075D7825
:03006D0000759388
:0A007000F0E493F2A308B8000205C3
:08007A0093D9F4DAF27593FF4B
:0E07240020F71030F6118883A88220F507F622
:05073200A8837583009F
:01073700229F
:03073800F280F755
:02073B00F022AA
:080088007800E84400600A79E9
:0300900000759365
:06009300F0E4F309D8FCC3
:080099007800E84400600C79D6
:0B00A1000090F000E4F0A3D8FCD9FAB6
:030053007581753F
:0A005600120759E582600302004E14
:0E073D0020F71430F6148883A88220F507E612
:06074B00A8837583002263
:03075100E280F74C
:03075400E4932209
:02075700E0229E
:040759007582002283
:00000001FF
