:040000000200533275
:01000B0032C2
:0100130032BA
:01001B0032B2
:0100230032AA
:01002B0032A2
:030033000207CCF5
:01003B003292
:01004300328A
:03004B0002016A45
:0300BE0002004EEF
:05004E001200C180FE5C
:0700C10012011612014212A8
:0600C80001D61201E51251
:0500CE00083812015C7E
:0500D30012081980FB7A
:0E08990012010002020000205104A716000107
:0E08A7000102030109022000020100C0320913
:0E08B500040000020A000000070504024000D3
:0E08C3000007058502400000040309103C03F5
:0E08D1006B00650069006E0065006300680042
:0E08DF0074006500720064006500750074000E
:0E08ED00730063006800650072004000670041
:0E08FB006D00610069006C002E0063006F004C
:0E0909006D000E034300430031003100310049
:0B091700310008033000300031000008
:0800D800C00C85810CAA82A86E
:0C00E0000C181818C3EA9650048A82809D
:0100EC00070C
:0700ED00A80C181818868208
:0300F400D00C220B
:0800F700C00C85810CAA82A84F
:0C00FF000C181818C3E69A50048A82807E
:01010B0007EC
:07010C00A80C1818188682E8
:03011300D00C22EB
:0601160053BEFB53C6BFFF
:08011C00E5C630E6030080F89F
:0301240053C6C0FF
:0A012700743F55C6FA60030080F62D
:0A013100744055BEFABA4002800384
:03013B000080F34E
:04013E0043BE042296
:0600AC00E4F508F509F57A
:0300B2000AF50B41
:0E01420075E40075E20075E54475E60075E7AA
:0C0150000075DAED75DB02C2DED2B922C8
:04015C0075E409221B
:06016000E4F508F509F5C5
:040166000AF50B2269
:0E016A00C0E0C002C003C004C005C0D075D004
:0E01780000AADA7B00ADDBE42AFAED3BFBE4E3
:0E018600FCFD74EE2AFA74023BE43CE43D8A70
:0E019400DAAADA7B00ADDBE42AFAED3BFBE4ED
:0E01A200FCFD74EE2A74023BFBE43CE43D8B52
:0901B000DB74012508F508E435B3
:0501B90009F509E43521
:0501BE000AF50AE4351A
:0A01C3000BF50B53E4DFD0D0D0059C
:0901CD00D004D003D002D0E032CE
:0601D60043FE020201DFFE
:0301DC00D291229B
:0301DF00C29122A8
:0301E200B29122B5
:0700B500753900753A007572
:0200BC003B0007
:0A01E5001201F71201FD75820012ED
:0601EF00051112027F025F
:0201F500029571
:0601F70043FE01D290223C
:0401FD0043BE80225B
:0402010053BE7F2247
:0D02050090DE11E04420F090FFFF0202198E
:07021200753900753A002266
:0E021900AA82AB83C002C00312022FD003D012
:0702270002EA4B7002F53BF7
:01022E0022AD
:0C022F00AA82AB83BA0005BB000280105D
:08023B00BA0405BB0002800FAC
:08024300BA0520BB001D800E6E
:07024B00752B00752C002249
:07025200752D00752E00223E
:07025900752F0075300075E0
:060260003100753200229E
:07026600752B00752C0075DB
:06026D002D00752E007546
:060273002F00753000753C
:0602790031007532002285
:0D027F0090DE077421F090DE097410F090FD
:09028C00DE0B7404F0439A022217
:0E02950090DE06E4F090DE02F090DE04F0C28F
:0202A300E8224F
:0702A500E58290DE0EF0225D
:0702AC0090DE0EE0F5822256
:0E02B300AA82C0021202ACAB82D002EB2B2456
:0B02C10020F582E434DEF583EAF02231
:0E02CC001202ACE58225822420F582E434DEA5
:0602DA00F583E0F582222D
:0A02E000AA82E52CFB04F52CEB24A8
:0A02EA0000F582E434F0F583EAF039
:0102F40022E7
:0202F500AA82DB
:0A02F7008A031AEB6023AB33AC342A
:0C030100AD358B828C838DF0120866FBFA
:07030D000533E4B5330205DE
:0103140034B4
:0B0315008B82C0021202B3D00280D71E
:0103200022BA
:02032100AA82AE
:0A0323008A031AEB602FAB36AC37EB
:0B032D00AD38C002C003C004C00512C0
:0E03380002CCAE82D005D004D003D0028B825E
:0C0346008C838DF0EE12084D0536E4B5F6
:0603520036CF053780CB19
:010358002282
:0C035900852C827420C0E01200D8AA821B
:0E03650015818A82C0021202F5D00290DE11CC
:0A037300E0FB4402F0E52CC39AF50C
:04037D002CBA200076
:0C038100500B90DE11E0FA4408F0753BD0
:01038D00006F
:01038E00224C
:0C038F00AA82C00290DE16E0C0E0852BC0
:0E039B00821200D815817420C0E01200D8AB89
:0E03A9008215818B82C003120321D003D00283
:0C03B70090DE11E0FC4440F0E52BC39BFD
:0C03C300FB8B2B700EEA600890DE11E04E
:0403CF00FA4408F0F4
:0303D300753B0077
:0103D6002204
:0E03D7007582051202A590DE11E04401F0AA25
:0403E5002FAB308A80
:0403E900318B3275AD
:0603ED002F007530002214
:0E03F3007582041202A590DE14E054FEF02282
:060401007582051202A540
:0B04070090DE11E0FA30E0030080F509
:0104120022C7
:0E041300AA82C002120401D0028A821202B331
:0A0421007401252FFAE43530FB8A40
:0A042B002F8B30BA4006BB0003021D
:0204350003D7EB
:0104370022A2
:06043800AA82AB83ACF0C8
:0E043E008A828B838CF0120866FD60188D8216
:0E044C00C002C003C004120413D004D003D0B9
:08045A00020ABA00DF0B80DC8E
:030462000204652C
:09046500E52F4530700C7440B520
:08046E003106E4B53202800101
:010476002263
:060477001204010203D78C
:0A047D00E52D452E703B7582041238
:0E04870002A590DE14E0FA20E00490FFFF22B0
:0D04950090DE17E0FA5302078A037A009008
:0C04A200DE16E0FC7D004202ED42038A01
:0404AE002D8B2EE57F
:0604B2002D452E7007121B
:0604B80003F390FFFF2298
:0B04BE001202CCAA82E52D24FFFBE512
:0704C9002E34FFFC8B2D8C8B
:0C04D0002EEB4C7007C0021203F3D002A8
:0704DC007B008A828B832262
:0E04E30012047DAA82AB838A048B05BAFF0641
:0604F100BBFF030080ECDC
:0304F7008C8222D2
:0704FA00AA8290DE00EAF087
:0A05010090DE00E0FBB5020280036B
:03050B000080F37A
:03050E000201E205
:0B051100AA828A217582041202A590C4
:0E051C00DE10E4F090DE137408F07582051214
:0E052A0002A590DE107408F090DE13E4F022BB
:060538008521820202E0B1
:0A053E00C00C85810C0581058105C4
:0B05480081AA82AD837B00A80C08761E
:07055300C90876F0087600EC
:0C055A00A80C0886820886830886F01230
:080566000866FF70030205E3C3
:0C056E00C007A80C08740126FFE4083642
:0E057A00FC0886038F828C838BF0120866FFCC
:05058800B5050280042E
:04058D00D0078036DD
:0C059100D0078A031AEB702EBD021CA8D4
:0C059D000C08740226FBE40836FC0886FB
:0C05A900058B828C838DF0120866FB8BA2
:0305B5002C800295
:0205B8008F2C86
:0705BA00A80C088633088637
:0605C10034088635801F9E
:0C05C700A80C0886820886830886F012C3
:0C05D3000866FBA80C08EB26F6E40836CE
:0405DF00F602055AC1
:0305E300120205FC
:0605E600850C81D00C22FF
:0405EC0075362375C8
:0605F0003700753840756C
:0805F6002B0875820002038F3F
:0905FE00E529452A6028748055A6
:0906070023FA6010BA8026753355
:030610000075343E
:05061300F075350075D3
:030618003B012281
:04061B0075360075BB
:03061F0037F0753C
:050622003800AA298A3E
:050627002B753B0222CF
:08062C0090DE11E0FA4408F031
:0106340022A3
:080635001205ECE52B60012227
:0C063D001205FEAA2374605AFB60030241
:0206490006DCCD
:08064B0053021FBA0002800EE9
:05065300BA0102805213
:06065800BA02030206CC09
:03065E000206DCB5
:07066100AA24BA0002801474
:05066800BA0502801D2F
:05066D00BA0602802026
:05067200BA0802802619
:05067700BA09628026B3
:0E067C007582001202E07582001202E08052C8
:08068A008525821204FA804A62
:0706920085258285268312F5
:04069900053E803F5B
:05069D00120538803A4F
:0806A20085258212051180324A
:0706AA00AA24BA000280053A
:0506B100BA0A28800ECA
:0E06B6007582001202E07582001202E08018C8
:0806C4007582001202E08010B3
:0C06CC00E4B5240C7582001202E0758277
:0406D800001202E02A
:0806DC007401B53B13AA298546
:0C06E4002C82C0021200D8AA8215818A64
:0406F0002C0203597C
:0106F40022E3
:0E06F5007582001202A590DE11E0FA30E40DCD
:0D07030090DE11E04480F090000012021919
:0E07100090DE11E0FA30E20D90DE11E054FBB5
:07071E00F090000012021927
:080725007401B53B03120359F6
:0C072D0090DE11E0FA30E014E4B53B026D
:02073900800B33
:0B073B007402B53B0975820102038FB8
:0307460002063573
:01074900228D
:0E074A007582041202A590DE14E0FA30E60D6E
:0D07580090DE14E054BFF09000040202197E
:010765002271
:0E0766007582051202A590DE11E0FA30E50D55
:0D07740090DE11E054DFF090000502021944
:010781002255
:0E0782001202ACAA8290DE06E0FB30E20DC04F
:0C0790000212027F90FFFF120219D0023B
:0C079C00E53930E007C0021206F5D0027B
:0C07A800E53A30E407C00212074AD00214
:0C07B400E53930E507C002120766D002EC
:0C07C000C002120212D0028A820202A5BE
:0C07CC00C020C0E0C0F0C082C083C002AA
:0E07D800C003C004C005C006C007C000C001B9
:0C07E600C0D075D00090DE02E0423990D7
:0C07F200DE04E0423AC2E8120782D0D0D8
:0E07FE00D001D000D007D006D005D004D00323
:0C080C00D002D083D082D0F0D0E0D02009
:0108180032AD
:0E09220012010002020000205104A71600017D
:0E0930000102030109022000020100C0320989
:0E093E00040000020A00000007050402400049
:0E094C000007058502400000040309103C036B
:0E095A006B00650069006E00650063006800B8
:0E096800740065007200640065007500740084
:0E0976007300630068006500720040006700B7
:0E0984006D00610069006C002E0063006F00C2
:0E0992006D000E0343004300310031003100C0
:0B09A00031000803300030003100007F
:0E0819001204E3AA82BA390B90088675F080AB
:050827001204388009F5
:09082C0090089475F08012043864
:030835000201E2DB
:0E08860048656C6C6F20576F726C6421000027
:050894004E2F410000A1
:0E09AB0012010002020000205104A7160001F4
:0E09B9000102030109022000020100C0320900
:0E09C700040000020A000000070504024000C0
:0E09D5000007058502400000040309103C03E2
:0E09E3006B00650069006E006500630068002F
:0E09F1007400650072006400650075007400FB
:0E09FF0073006300680065007200400067002E
:0E0A0D006D00610069006C002E0063006F0038
:0E0A1B006D000E034300430031003100310036
:0B0A29003100080330003000310000F5
:0E083800758805759800759B0075C00075E801
:0408460000D2AF220B
:03084A00C2AF2218
:06008200E478FFF6D8FD52
:08006000799BE94401601B7A61
:050068000290089978E8
:03006D0040759348
:0A007000F0E493F2A308B8000205C3
:08007A0093D9F4DAF27593FF4B
:0E084D0020F71030F6118883A88220F507F6F8
:05085B00A88375830075
:010860002275
:03086100F280F72B
:02086400F02280
:080088007800E84400600A79E9
:0300900000759365
:06009300F0E4F309D8FCC3
:080099007840E84400600C7996
:0B00A1000190F000E4F0A3D8FCD9FAB5
:0300530075813B79
:0A005600120882E582600302004EEA
:0E08660020F71430F6148883A88220F507E6E8
:06087400A8837583002239
:03087A00E280F722
:03087D00E49322DF
:02088000E02274
:040882007582002259
:00000001FF
