:03000000020008F3
:0300610002000397
:0500030012006480FE04
:070064001200A91200E112D5
:02006B0000F1A2
:0E006D00741055E4FABA10F81200FD53E4EFD7
:02007B0080F013
:08007D00AA82AB837C007D0028
:0E008500C3EC9AED64808BF063F08095F05030
:05009300147EE87F036C
:050098001EBEFF011F68
:0B009D00EE4F70F70CBC00E00D80DDA2
:0100A8002235
:0600A90053BEFB53C6BF6D
:0800AF00E5C630E6030080F80D
:0C00B70074C055C6F5F0743845F0F5C66D
:0A00C300743F55C6FABA38028003F4
:0300CD000080F3BD
:0A00D000744055BEFABA40028003E6
:0300DA000080F3B0
:0400DD0043BE0422F8
:0E00E10075E40075E20075DBFF75DAFF75E46B
:0200EF000222EB
:0600F10043FE020200FACA
:0300F700D2912281
:0300FA00C291228E
:0300FD00B291229B
:06003700E478FFF6D8FD9D
:080015007900E94400601B7A48
:05001D000090010478D1
:03002200007593D3
:0A002500F0E493F2A308B80002050E
:08002F0093D9F4DAF27593FF96
:08003D007800E84400600A7934
:03004500007593B0
:06004800F0E4F309D8FC0E
:08004E007800E84400600C7921
:0B0056000090F000E4F0A3D8FCD9FA01
:03000800758107F8
:0A000B00120100E582600302000309
:0401000075820022E2
:00000001FF
