:0600000002008B0209540E
:01000B0032C2
:0100130032BA
:01001B0032B2
:0100230032AA
:01002B0032A2
:0300330002076A57
:01003B003292
:01004300328A
:03004B000201B7F8
:01005300327A
:01005B003272
:01006300326A
:01006B003262
:01007300325A
:01007B003252
:030083000209B7B8
:030108000200866C
:0500860012010B80FED9
:07010B0012016112019912BB
:06011200020E120A0512A4
:0601180001B312021D12EA
:05011E0007E00208EA01
:0E0A530012010002020000205104A71600014B
:0E0A61000102030109023000020100C0320947
:0E0A6F000400000102020100070581030800D7
:0E0A7D000A09040100020A0000000705040235
:0E0A8B0040000007058502400000040309102A
:0E0A99003C036B00650069006E0065006300A1
:0E0AA700680074006500720064006500750050
:0E0AB50074007300630068006500720040006A
:0E0AC30067006D00610069006C002E0063008A
:0E0AD1006F006D000E03430043003100310042
:0D0ADF00310031000803300030003100000C
:08012300C021858121AA82A8F8
:0C012B0021181818C3EA9650048A82803C
:0101370007C0
:07013800A8211818188682A7
:03013F00D02122AA
:08014200C021858121AA82A8D9
:0C014A0021181818C3E69A50048A82801D
:0101560007A1
:07015700A821181818868288
:03015E00D021228B
:0601610053BEFB53C6BFB4
:08016700E5C630E6030080F854
:0C016F0074C055C6F5F0740845F0F5C6E4
:0A017B00743F55C6FABA080280036B
:030185000080F304
:0A018800744055BEFABA400280032D
:030192000080F3F7
:0401950043BE04223F
:0E01990075E40075E20075E54475E60075E753
:0C01A7000075DA9E75DB24C2DED2B9229E
:0401B30075E40D22C0
:0E01B700C0E0C002C003C004C005C0D075D0B7
:0E01C50000AADA7B00ADDBE42AFAED3BFBE496
:0E01D300FCFD749F2AFA74243BE43CE43D8A50
:0E01E100DAAADA7B00ADDBE42AFAED3BFBE4A0
:0E01EF00FCFD749F2A74243BFBE43CE43D8B32
:0E01FD00DB53E4DFD0D0D005D004D003D00215
:03020B00D0E0320E
:06020E0043FE020202178C
:03021400D2912262
:03021700C291226F
:03021A00B291227C
:0600E400E4F512F513F52E
:0500EA0014E4F515F51A
:0500EF0016F517E4F511
:0500F40018F519E4F508
:0400F9001AF51B7564
:0200FD001C00E5
:0A021D0012022C12024C758200122E
:05022700027202025CFE
:09022C0043BE8043FE01D2902282
:06023500E4F518F519F5CF
:04023B001AF51BF5A0
:02023F001C227F
:0B02410090DE11E04420F0751C032249
:0E024C0090DE02E4F090DE04F090DE06F0C2D8
:02025A00E82298
:0D025C0090DE077423F090DE097410F0901E
:09026900DE0B7404F0439A02223A
:0B027200AA828A0875820112076390BF
:0E027D00DE107401F090DE137401F07582043F
:0E028B0012076390DE10E4F090DE137408F0AA
:0D02990075820512076390DE107408F09066
:0502A600DE13E4F0226C
:0602AB0085088202048BAD
:0702B100AA8290DE00EAF0D2
:0902B80090DE00E0FBB50201221A
:0302C1000080F4C6
:0A02C400C021858121058105810517
:0B02CE0081AA82AD837B00A821087686
:0702D900990876F008760099
:0C02E000A8210886820886830886F01298
:0802EC000A33FF700302036FE7
:0C02F400C007A82108740126FFE40836AA
:0E030000FC0886038F828C838BF0120A33FF79
:05030E00B505028004AA
:04031300D007803C53
:0C031700D0078A031AEB7034BD021FA847
:0C0323002108740226FBE40836FC088662
:0C032F00058B828C838DF0120A33FB8B4F
:06033B0018751900800591
:050341008F1875190082
:07034600A8210886120886B9
:06034D0013088614801F56
:0C035300A8210886820886830886F01224
:0C035F000A33FBA82108EB26F6E4083660
:04036B00F60202E0B4
:03036F0012024136
:06037200852181D021224B
:0403780075150A7578
:06037C0016007517407524
:090382001A08E4F51B7582000263
:02038B00058BE0
:09038D00E5104511602A74805549
:090396000AFA6010BA8028751201
:03039F00327513A1
:0503A200F17514007567
:0303A7001C012214
:0403AA00751532751E
:0303AE0016F175D0
:0403B100170085109C
:0303B5001A851195
:0503B8001B751C022270
:0803BD0090DE11E0FA4408F0A3
:0103C5002215
:0603C600120378E51A4560
:0403CC001B6001228F
:0C03D00012038DAA0A74605AFB6003023D
:0203DC00046FAC
:0803DE0053021FBA0002800E59
:0503E600BA0102805283
:0603EB00BA020302045FE8
:0303F10002046F94
:0703F400AA0BBA00028014FD
:0503FB00BA0502801D9F
:05040000BA0602802095
:05040500BA0802802688
:05040A00BA0962802622
:0E040F0075820012048B75820012048B8052DD
:08041D00850C821202B1804A35
:07042500850C82850D831296
:04042C0002C4803F47
:050430001202AB803A4E
:08043500850C82120272803274
:07043D00AA0BBA00028005C2
:05044400BA0A28800E39
:0E04490075820012048B75820012048B8018DD
:0804570075820012048B801075
:0C045F00E4B50B0C75820012048B758252
:04046B000012048BEC
:08046F007401B51C16AA1085EA
:0C0477001882C002120123AA8215818A9B
:050483001875190002CC
:02048800053D30
:01048A00224F
:07048B00AA82AB18AC1905B1
:0604920018E4B518020594
:01049800194A
:0A049900EB2432F582EC34F1F58318
:0304A300EAF0225A
:0E04A600AA8290DE0EE025E02420F582E434E8
:0604B400DEF583EAF022F0
:0E04BA0090DE0EE025E02420F582E434DEF52D
:0504C80083E0F5822233
:0404CD00AA827B0084
:0A04D100C3EB9A5028AC12AD13AE35
:0C04DB00148C828D838EF0120A33FC0515
:0604E70012E4B51202054B
:0104ED0013FB
:0E04EE008C82C002C0031204A6D003D0020B01
:0204FC0080D3AB
:0104FE0022DB
:0404FF00AA827B0052
:0A050300C3EB9A5034AC15AD16AEF0
:0C050D0017C002C003C004C005C00612E5
:0E05190004BAAF82D006D005D004D003D002C1
:0C0527008C828D838EF0EF120A1A0515ED
:06053300E4B515020516F7
:030539000B80C76D
:01053C00229C
:0C053D008518827420C0E0120123AA82FD
:0205490015811A
:0B054B0090DE11E0FB30E1030080F5C2
:0E0556008A82C0021204CDD00290DE11E0FBBA
:0A0564004402F0C3E5189420E519E5
:0D056E009400500B90DE11E0FB4408F07586
:02057B001C0062
:09057D007B00E518C39AF518E5AE
:05058600199BF519228C
:0C058B00AA82851A82C0027420C0E0120F
:0E0597000123AB82158190DE16E0C0E08B825E
:0E05A500120123AB8215818B82C0031204FF6A
:0E05B300D003D00290DE11E0FC4440F0C3E51E
:0A05C1001A9420E51B9400501E8BD5
:0A05CB00047D00E51AC39CFCE51B4B
:0E05D5009DFD4C700EEA600890DE11E0FA44C5
:0205E30008F01E
:0305E500751C0082
:0905E8007A00E51AC39BF51AE53F
:0505F1001B9AF51B221E
:0C05F6008518827440C0E0120123AA8224
:0406020015817B00E3
:0B06060090DE11E0FC30E0030080F506
:0E0611008A82C002C0031204CDD003D0029032
:0C061F00DE11E0FC4401F0C3E51894403B
:09062B00E51994005003751C0050
:07063400E518C39AF518E573
:05063B00199BF51922D6
:0C064000851A827440C0E0120123AA82D7
:0E064C0015817B008A82C002C0031204FFD019
:0D065A0003D00290DE14E0FC54FEF0C3E576
:0A0667001A9440E51B94005003753F
:020671001C006B
:07067300E51AC39AF51AE530
:05067A001B9BF51B2293
:0E067F0075820012076390DE11E0FA30E40A83
:0A068D0090DE11E04480F012023507
:0E06970090DE11E0FA30E20A90DE11E054FB32
:0406A500F012023518
:0806A9007401B51C0312053DAC
:0C06B10090DE11E0FA30E016E4B51C0207
:0206BD008007B4
:0706BF007402B51C0B80035F
:0306C6000203C666
:0606C90075820102058BA1
:0106CF002208
:0606D000758201020763C0
:0E06D60075820512076390DE11E0FA30E50A26
:0A06E40090DE11E054DFF012023541
:0806EE007401B51C030205F6BE
:0106F60022E1
:0E06F70075820412076390DE14E0FA30E60A02
:0A07050090DE14E054BFF01202353C
:0C070F0090DE14E0FA30E04BE51C700BAB
:04071B0075153275A9
:03071F0016F1F5DB
:0407220017751C0229
:0D07260090DE17E0FA5302078A037A009074
:0C073300DE16E0FC7D00EA4CF51AEB4DF0
:05073F00F51BE51A2581
:0407440018F518E5A7
:040748001B3519F54F
:05074C0019120640E552
:050751001C700E751282
:03075600327513E6
:04075900F1F514752D
:05075D001C010206D69C
:010762002274
:07076300E58290DE0EF0229A
:0C076A00C020C0E0C0F0C082C083C0020C
:0E077600C003C004C005C006C007C000C0011B
:0E078400C0D075D00090DE06E0FA30E203121D
:02079200025C07
:0B07940090DE02E0FA30E00312067F66
:0B079F0090DE02E0FA30E1031206D009
:0B07AA0090DE04E0FA30E4031206F7D2
:0B07B50090DE02E0FA30E5031206D6E9
:0E07C00012024CD0D0D001D000D007D006D00D
:0E07CE0005D004D003D002D083D082D0F0D06A
:0407DC00E0D0203217
:0E0AEC0012010002020000205104A7160001B2
:0E0AFA000102030109023000020100C03209AE
:0E0B080004000001020201000705810308003D
:0E0B16000A09040100020A000000070504029B
:0E0B2400400000070585024000000403091090
:0E0B32003C036B00650069006E006500630007
:0E0B40006800740065007200640065007500B6
:0E0B4E007400730063006800650072004000D0
:0E0B5C0067006D00610069006C002E006300F0
:0E0B6A006F006D000E034300430031003100A8
:0D0B78003100310008033000300031000072
:0E0B8500000000000000000000000000000062
:0E0B9300000000000000000000000000000054
:0E0BA100000000000000000000000000000046
:0E0BAF00000000000000000000000000000038
:0E0BBD0000000000000000000000000000002A
:0E0BCB0000000000000000000000000000001C
:0E0BD90000000000000000000000000000000E
:0E0BE700000000000000000000000000000000
:0E0BF5000000000000000000000000000000F2
:0E0C03000000000000000000000000000000E3
:0E0C11000000000000000000000000000000D5
:0E0C1F000000000000000000000000000000C7
:0E0C2D000000000000000000000000000000B9
:0E0C3B000000000000000000000000000000AB
:0E0C490000000000000000000000000000009D
:0E0C570000000000000000000000000000008F
:0E0C6500000000000000000000000000000081
:0E0C7300000000000000000000000000000073
:040C8100000000006F
:0700FF00751D00751E007560
:020106001F00D8
:0707E0001207E912082102D3
:0207E70007EB1E
:0207E9000022EC
:0907EB007591FFD2A8439A012286
:0307F40075E104A8
:0907F70090DF3BE0FABA01012297
:030800000080F481
:0308030075E1029A
:0908060090DF3BE0FABA0D01227B
:03080F000080F472
:0308120075E1038A
:0908150090DF3BE0FABA13012266
:03081E000080F463
:0E08210090DF0074FFF090DF01E4F090DF0242
:0D082F0074FFF090DF03E4F090DF04F09020
:0E083C00DF05F090DF077406F090DF08E4F0AF
:0D084A0090DF0C7499F090DF0D7466F09053
:0E085700DF0E7433F090DF0F7461F090DF104D
:0E086500747EF090DF117415F090DF127407AE
:0E087300F090DF137430F090DF147418F090E2
:0E088100DF157417F090DF1A74B6F090DF1BCD
:0E088F007411F090DF1C74E9F090DF1D742AE4
:0D089D00F090DF1EE4F090DF1F741FF0905C
:0E08AA00DF247431F090DF257409F090DF2E0A
:0E08B800E4F090DF177407F090DF18E4F09082
:0E08C600DF197491F090DF097426F090DF0ABC
:0E08D4007430F090DF0B7470F090DF06740249
:0808E200F090DF2D74C0F0223C
:0B08EA007A00C00212021A751D0012F5
:0908F50007F4120803D0027B0095
:0A08FE00C3EB951D50FAEB248BF5B7
:0C09080082E434F3F583E0FCF582C002C9
:0E091400C003C00412048BD004D003D002BB79
:090922000207EC70047A02800F58
:0C092B00EB24FD5007EBB51D03EC60034E
:030937000B80C46E
:09093A00C0021207F41205F612C6
:07094300021AD0028A822291
:0A094A001207F41208127582002251
:0E095400C0E0C082C083C002C003C0D075D016
:0B0962000090DF3BE0FABA0D028005B8
:05096D00BA133A8035C9
:0A097200AAD9E51D701490F2CBE540
:0C097C001FF090DF3AE0FB90F2CCF07529
:040988001D02051F28
:09098C007440251D4012AB1D054D
:080995001DEB24CBF582E434D4
:07099D00F2F583EAF0800689
:0309A400008003CD
:0309A70075D900FF
:0D09AA00D0D0D003D002D083D082D0E03274
:0D09B700C0E0E5E930E70675E10453E97F93
:0B09C400E5E930E60675E10453E9BFE9
:0809CF00E5E930E50353E9DF1F
:0809D700E5E930E40353E9EF08
:0809DF00E5E930E30353E9F7F9
:0809E700E5E930E20353E9FBEE
:0809EF00E5E930E10353E9FDE5
:0809F700E5E930E00353E9FEDD
:0609FF00759B00D0E03200
:0E0C850012010002020000205104A716000117
:0E0C93000102030109023000020100C0320913
:0E0CA1000400000102020100070581030800A3
:0E0CAF000A09040100020A0000000705040201
:0E0CBD004000000705850240000004030910F6
:0E0CCB003C036B00650069006E00650063006D
:0E0CD90068007400650072006400650075001C
:0E0CE700740073006300680065007200400036
:0E0CF50067006D00610069006C002E00630056
:0E0D03006F006D000E0343004300310031000D
:0D0D110031003100080330003000310000D7
:0E0D1E000000000000000000000000000000C7
:0E0D2C000000000000000000000000000000B9
:0E0D3A000000000000000000000000000000AB
:0E0D480000000000000000000000000000009D
:0E0D560000000000000000000000000000008F
:0E0D6400000000000000000000000000000081
:0E0D7200000000000000000000000000000073
:0E0D8000000000000000000000000000000065
:0E0D8E00000000000000000000000000000057
:0E0D9C00000000000000000000000000000049
:0E0DAA0000000000000000000000000000003B
:0E0DB80000000000000000000000000000002D
:0E0DC60000000000000000000000000000001F
:0A0DD4000000000000000000000015
:0E0DDE00000000000000000000000000000007
:0E0DEC000000000000000000000000000000F9
:0E0DFA000000000000000000000000000000EB
:0E0E08000000000000000000000000000000DC
:0E0E16000000000000000000000000000000CE
:0E0E24000000000000000000000000000000C0
:0E0E32000000000000000000000000000000B2
:0E0E40000000000000000000000000000000A4
:0E0E4E00000000000000000000000000000096
:0E0E5C00000000000000000000000000000088
:0E0E6A0000000000000000000000000000007A
:0E0E780000000000000000000000000000006C
:0E0E860000000000000000000000000000005E
:0A0E94000000000000000000000054
:0E0A0500758805759800759B0075C00075E832
:040A130000D2AF223C
:030A1700C2AF2249
:0600BA00E478FFF6D8FD1A
:08009800794BE94404601B7A76
:0500A00005900A5378F1
:0300A50000759350
:0A00A800F0E493F2A308B80002058B
:0800B20093D9F4DAF27593FF13
:0E0A1A0020F71030F6118883A88220F507F629
:050A2800A883758300A6
:010A2D0022A6
:030A2E00F280F75C
:020A3100F022B1
:0800C0007800E84400600A79B1
:0300C8000075932D
:0600CB00F0E4F309D8FC8B
:0800D1007800E84400600C799E
:0B00D9000090F000E4F0A3D8FCD9FA7E
:03008B007581215B
:0A008E00120A4FE5826003020086AB
:0E0A330020F71430F6148883A88220F507E619
:060A4100A883758300226A
:030A4700E280F753
:030A4A00E4932210
:020A4D00E022A5
:040A4F00758200228A
:00000001FF
