:040000000200533275
:01000B0032C2
:0100130032BA
:01001B0032B2
:0100230032AA
:01002B0032A2
:01003300329A
:01003B003292
:01004300328A
:03004B000201713E
:0300AC0002004E01
:05004E001200AF80FE6E
:0700AF0012010612013E12CE
:0600B60001FD12020C0224
:0200BC00016DD4
:0A00BE00C008858108AA82AB83A860
:0C00C80008181818E675F008A4FCADF04C
:0A00D4008CF005F07EFF7F0080062F
:0600DE00EE2EFEEF33FFE1
:0E00E400D5F0F7EE5202EF52038CF005F0ACAF
:0500F20002AD038007D0
:0700F700C3ED13FDEC13FC47
:0800FE00D5F0F68C82D0082237
:0601060053BEFB53C6BF0F
:08010C00E5C630E6030080F8AF
:0C01140074C055C6F5F0740845F0F5C63F
:0A012000743F55C6FABA08028003C6
:03012A000080F35F
:0A012D00744055BEFABA4002800388
:030137000080F352
:04013A0043BE04229A
:0E013E0075E40075E20075E544E4F5E6F5E7CA
:0E014C00C0E090249E1200BE8582DA158174F8
:0E015A0001C0E090249E1200BE8582DB15815C
:05016800C2DED2B92245
:04016D0075E40D2206
:0C017100C020C0E0C0F0C082C083C0020B
:0E017D00C003C004C005C006C007C000C0011A
:0E018B00C0D075D000AADA7B00ADDBE42AFA02
:0E019900ED3BFB8A048B05E4FEFF749F2CFCFB
:0E01A70074243DFDE43EE43F8C028D03C00253
:0E01B500C003E4C0E08A828B831200BE858204
:0E01C300DA1581D003D0027401C0E08A828B6D
:0E01D100831200BE8582DB158112020953E401
:0E01DF00DFD0D0D001D000D007D006D005D0A0
:0E01ED0004D003D002D083D082D0F0D0E0D076
:0201FB002032B0
:0601FD0043FE02020206AF
:03020300D2912273
:03020600C2912280
:03020900B291228D
:0E020C00758805759800759B0075C00075E833
:04021A0000D2AF223D
:06008200E478FFF6D8FD52
:080060007900E94400601B7AFD
:05006800009002227867
:03006D0000759388
:0A007000F0E493F2A308B8000205C3
:08007A0093D9F4DAF27593FF4B
:080088007800E84400600A79E9
:0300900000759365
:06009300F0E4F309D8FCC3
:080099007800E84400600C79D6
:0B00A1000090F000E4F0A3D8FCD9FAB6
:0300530075812094
:0A00560012021EE582600302004E54
:04021E0075820022C3
:00000001FF
