:03000000020008F3
:0300610002000397
:0500030012006480FE04
:0700640012007D1200A91239
:05006B0000C31200D3E8
:0D007000E5E430E4FB1200DF53E4EF80F321
:06007D0053BEFB53C6BF99
:08008300E5C630E6030080F839
:03008B0053C6C099
:0A008E00743F55C6FA60030080F6C7
:0A009800744055BEFABA400280031E
:0300A2000080F3E8
:0400A50043BE042230
:0A00A9001200B3D2DED2B9D2AF22AA
:0E00B300758805759800759B0075C00075E88E
:0200C10000221B
:0E00C30075E40075E20075DBFF75DAFF75E489
:0200D1000E22FD
:0600D30043FE020200DC06
:0300D900D291229F
:0300DC00C29122AC
:0300DF00B29122B9
:06003700E478FFF6D8FD9D
:080015007900E94400601B7A48
:05001D00009000E678F0
:03002200007593D3
:0A002500F0E493F2A308B80002050E
:08002F0093D9F4DAF27593FF96
:08003D007800E84400600A7934
:03004500007593B0
:06004800F0E4F309D8FC0E
:08004E007800E84400600C7921
:0B0056000090F000E4F0A3D8FCD9FA01
:03000800758107F8
:0A000B001200E2E582600302000328
:0400E2007582002201
:00000001FF
