:06000000020089020D1749
:01000B0032C2
:0100130032BA
:01001B0032B2
:0100230032AA
:01002B0032A2
:030033000208E5DB
:01003B003292
:01004300328A
:03004B000201E7C8
:01005300327A
:01005B003272
:01006300326A
:01006B003262
:01007300325A
:01007B003252
:03008300020DE289
:0301030002008671
:030086000201066E
:1A01060012015E12019212025B12026A1209321210A91201AC120E5C80FB0E
:20012000C011858111AF82E51124FDF8C3EF9650048F828007E51124FDF88682D01122C089
:1E01400011858111AF82E51124FDF8C3E69F50048F828007E51124FDF88682D01122EB
:20015E00AFBE74FB5FF5BEAFC674BF5FF5C6E5C630E6030080F853C6C0743F55C6FF60038C
:14017E000080F6744055BEFFBF400280030080F343BE042213
:0900E200E4F508F509F50AF50B37
:2001920075E40075E20075E54475E60075E70075DAED75DB02C2DED2B92275E40922E4F510
:2001B20008F509F50AF50B22AC82AD83AEF0FFC007C006C005C0041201B0D004D005D006B3
:2001D200D007C3E5089CE5099DE50A9EE50B9F50030080EE22C0E0C007C006C005C004C0EA
:2001F200D075D000AEDA7F00ACDB8C05E42EFEED3FFFE4FDFC74EE2EFE74023FE43DE43C1D
:200212008EDAAEDA7F00ACDB8C05E42EFEED3FFFE4FDFC74EE2E74023FFFE43DE43C8FDB3E
:2002320074012508F508E43509F509E4350AF50AE4350BF50BAFE474DF5FF5E4D0D0D00415
:09025200D005D006D007D0E0323F
:0F025B0043FE02020264D29122C29122B291228A
:0900EB00753900753A00753B00FF
:20026A0012027C12028275820012063812030F02032543FE01D2902243BE8022AFBE747FF0
:20028A005FF5BE2290DE11E0FF74204FF090FFFF0202A4753900753A0022AE82AF83C00711
:2002AA00C0061202BAD006D0078E828F830202CCAE82AF83EE4F6006BEFF06BFFF03753BC8
:2002CA000022AE82AF83EE4F6006BEFF09BFFF06752B00752C00BE0405BF00028006BEFF57
:2002EA0009BFFF06752D00752E00BE0505BF00028006BEFF0FBFFF0C752F0075300075314E
:20030A00007532002290DE077421F090DE097410F090DE0B7404F0439A022290DE06E4F0FB
:20032A0090DE02F090DE04F0C2E822E58290DE0EF02290DE0EE0F58222AF82C00712033CF2
:20034A00AE82D007EE2E2420F582E434DEF583EFF02212033CE58225822420F582E434DE36
:20036A00F583E0F58222AF82E52CFE04F52CEE2400F582E434F0F583EFF022AF828F061F2E
:20038A00EE6023AC33AD34AE358C828D838EF01210D9FC0533E4B5330205348C82C0071286
:2003AA000343D00780D722AF828F061FEE602FAC36AD37AE38C007C006C005C00412035C08
:2003CA00AB82D004D005D006D0078C828D838EF0EB1210BE0536E4B536CF053780CB228522
:2003EA002C827420C0E0120120AF8215818F82C007120385D00790DE11E0FE74024EF0E5D8
:20040A002CC39FF52CBF2000500F90DE11E0FF74084FF09000000202BA22AF8290DE16E0C7
:20042A00FE852B82C007C00612012015817420C0E0120120AE8215818E82C0061203B1D093
:20044A0006D00790DE11E0FD74404DF0E52BC39EFE8E2B7012EF600990DE11E0FF74084F3D
:20046A00F09000000202BA2275820512033590DE11E0FF74014FF0AE2FAF308E318F327509
:20048A002F007530002275820412033590DE14E0FF74FE5FF02275820512033590DE11E02E
:2004AA00FF30E0030080F522AF82C0071204A0D0078F821203437401252FFEE43530FF8EFE
:2004CA002F8F30BE4006BF0003020472227582001204B2E52F4530700C7440B53106E4B5C7
:2004EA0032028001221204A00204721204B20204D7C011858111C082C083C0F07C00E511B9
:20050A0024FDF886038B021BEA602CC0038C020CA81108EA26FAE40836FB0886078A828BA0
:20052A00838FF01210D9F582C004C0031204B2D003D004D00380CE1204D7851181D011221F
:20054A00E52D452E703B75820412033590DE14E0FF20E00490FFFF2290DE17E0FF53070742
:20056A008F067F0090DE16E0FD7C004207EC42068F2D8E2EE52D452E700712049090FFFF5B
:20058A002212035CAF82E52D24FFFDE52E34FFFE8D2D8E2EED4E7007C007120490D0077E2D
:2005AA00008F828E832212054AAE82AF838E048F05BEFF06BFFF030080EC8C82221205B01D
:2005CA00AE827F00C007C0061205B0AD82D006D0077C00ED2FF582EC3EF583221205C7AED3
:2005EA0082AF838F048E057F007E00C007C006C005C0041205C7AA82AB83D004D005D0064D
:20060A00D0078A008B01E4FAFBE82EFEE93FFFEA3DFDEB3C8E828F838DF022AF8290DE0024
:20062A00EFF090DE00E0FEB50701220080F4AF828F2175820412033590DE10E4F090DE1339
:20064A007408F075820512033590DE107408F090DE13E4F022852182020370C011858111F8
:20066A00058105810581AE82AC837F00A8110876420876F0087600A81108868208868308B9
:20068A0086F01210D9FA700302070AC002A81108740126FAE40836FD0886078A828D838FE8
:2006AA00F01210D9FAB504028004D0028036D0028E071EEF702EBC021CA81108740226FC3F
:2006CA00E40836FD0886078C828D838FF01210D9FC8C2C80028A2CA8110886330886340894
:2006EA008635801FA8110886820886830886F01210D9FFA81108EF26F6E40836F6020681D7
:20070A0012028E851181D01122753623753700753840752B08758200020424E529452A6006
:20072A002C74805523FFFEBE00028010BF80277533007534F0753500753B01227536027584
:20074A0037F0753800AF298F2B753B022290DE11E0FF74084FF022120713E52B6001221249
:20076A000725AF2374605FFE600302080A53071FBF0002800EBF01028054BF02030207FAA4
:20078A0002080AAF24BF00028014BF0502801DBF06028021BF08028027BF0964802775820E
:2007AA00001203707582001203708054AF258F82120625804B8525828526831206658040D6
:2007CA0012065F803BAF258F821206388032AF24BF00028005BF0A28800E758200120370E2
:2007EA0075820012037080187582001203708010E4B5240C7582001203707582001203700E
:20080A007401B53B13AF29852C82C007120120AF8215818F2C0203E92275820012033590EE
:20082A00DE11E0FF30E40F90DE11E0FF74804FF09000001202A490DE11E0FF30E20F90DEF7
:20084A0011E0FF74FB5FF09000001202A47401B53B031203E990DE11E0FF30E014E4B53BDC
:20086A0002800B7402B53B097582010204240207612275820412033590DE14E0FF30E60FF9
:20088A0090DE14E0FF74BF5FF09000040202A42275820512033590DE11E0FF30E50F90DED7
:2008AA0011E0FF74DF5FF09000050202A42290DE06E0FF30E20912030F90FFFF1202A4E580
:2008CA0039FF30E003120823E53A30E40312087CE53930E50312089A02029DC020C0E0C0EF
:2008EA00F0C082C083C007C006C005C004C003C002C001C000C0D075D00090DE02E04239BD
:20090A0090DE04E0423AC2E81208B8D0D0D000D001D002D003D004D005D006D007D083D024
:08092A0082D0F0D0E0D02032B1
:2011220012010002020000205104A71600010102030109022000020100C03209040000022D
:201142000A0000000705040240000007058502400000040309103C036B00650069006E0058
:201162006500630068007400650072006400650075007400730063006800650072004000EB
:2011820067006D00610069006C002E0063006F006D000E034300430031003100310031007B
:0911A200080330003000310000A8
:0F00F400750C00750D00750E00750F007510006E
:200932001209710209387591FFD2A8439A012290DF3BE0FFBF0101220080F475E104020912
:200952004175E10290DF3BE0FFBF0D01220080F475E10390DF3BE0FFBF1301220080F49025
:20097200DF0074FFF090DF01E4F090DF0214F090DF03E4F090DF04F090DF05F090DF077473
:2009920006F090DF08E4F090DF0C7499F090DF0DF4F090DF0E03F090DF0F7461F090DF10FA
:2009B200747EF090DF117415F090DF127407F090DF137430F090DF1403F090DF1514F090BA
:2009D200DF1A74B6F090DF1B7411F090DF1C74E9F090DF1D742AF090DF1EE4F090DF1F749E
:2009F2001FF090DF247431F090DF257409F090DF2EE4F090DF177407F090DF18E4F090DF81
:200A1200197491F090DF097426F090DF0A7430F090DF0B7470F090DF067402F090DF2D746E
:200A3200C0F022AF827C007D007E00EF24DC5003020BCEEF240A83F582EF242883F583E4DC
:200A5200739BA4ADB6BFC8D1DAE3ECF5FE071019222B343D464F586068707880889098A020
:200A7200A8B0B8C0C80A0A0A0A0A0A0A0A0A0A0A0A0B0B0B0B0B0B0B0B0B0B0B0B0B0B0BAF
:200A92000B0B0B0B0B0B0B0B0B7C007DDF7E00020BCE7C017DDF7E00020BCE7C027DDF7E26
:200AB20000020BCE7C037DDF7E00020BCE7C047DDF7E00020BCE7C057DDF7E00020BCE7C2E
:200AD200077DDF7E00020BCE7C087DDF7E00020BCE7C0C7DDF7E00020BCE7C0D7DDF7E006F
:200AF200020BCE7C0E7DDF7E00020BCE7C0F7DDF7E00020BCE7C107DDF7E00020BCE7C11BC
:200B12007DDF7E00020BCE7C127DDF7E00020BCE7C137DDF7E00020BCE7C147DDF7E00021B
:200B32000BCE7C167DDF7E00020BCE7C157DDF7E00020BCE7C1A7DDF7E00020BCE7C1B7DDE
:200B5200DF7E00020BCE7C1C7DDF7E00806E7C1D7DDF7E0080667C1E7DDF7E00805E7C1FA5
:200B72007DDF7E0080567C247DDF7E00804E7C257DDF7E0080467C2D7DDF7E00803E7C2E3F
:200B92007DDF7E0080367C177DDF7E00802E7C187DDF7E0080267C197DDF7E00801E7C09F2
:200BB2007DDF7E0080167C0A7DDF7E00800E7C0B7DDF7E0080067C067DDF7E008C828D8364
:200BD2008EF022C011858111AF827E00C007C00612094DD006D00790DF06EFF0750C00C095
:200BF200061209531201B0D00690F0CDE0FF7D00C3ED950C502BED700DE50C24FD5007EF9F
:200C120070047EBB8046ED24CBF582E434F0F583E0FC0DED24FD50D8EDB50CD4EC70D1802E
:200C32002BE50C70CBE51124FAF8E608460846084660BDE51124FAF8C3E6950808E6950974
:200C520008E6950A08E6950B50A67EAAC00612094DD006EE7011C006C00C90F0CB75F00094
:200C72001204FB1581D0068E82D01122C011858111AF82C00712094DD00790DF06EFF075EA
:200C92000D00750E00750F00E50D240740071205B0AF8280027F00AE0D050DEE24C3F582B8
:200CB200E434F1F583EFF0EF70DE120962120941E51124FDF886078F061FEE6036E51124BE
:200CD200F9F8E60846084608466016E51124F9F886820886830886F008E6C0071201BAD0D7
:200CF20007750E00750F00C007120962120941D00780C4D0112212094D750E00750F001295
:200D12000962020941C020C0E0C0F0C082C083C007C006C005C004C003C002C001C000C079
:200D3200D075D00090DF3BE0FFBF0D028008BF13028059020DC5AFD9E50C7035E51004F520
:200D520082C0077401C0E012013F858210158190F0CBE510F090DF3AE0FE7401C0E08E8248
:200D720012013FAE821581D00790F0CCEEF0750C027408250C4012AE0C050CEE24CBF582A7
:200D9200E434F0F583EFF0802A008027C3E50E950D5013AF0E050EEF24C3F582E434F1F5BB
:200DB20083E0F5D9800D75D900050F7402B50F0312094DD0D0D000D001D002D003D004D0D2
:200DD20005D006D007D083D082D0F0D0E0D02032C0E0C007C0D075D000E5E930E70A75E197
:200DF20004AFE9747F5FF5E9E5E930E60A75E104AFE974BF5FF5E9E5E930E507AFE974DFF0
:200E12005FF5E9E5E930E407AFE974EF5FF5E9E5E930E307AFE974F75FF5E9E5E930E20753
:200E3200AFE974FB5FF5E9E5E930E107AFE974FD5FF5E9E5E9FF30E007AFE974FE5FF5E905
:0A0E5200759B00D0D0D007D0E0322D
:2011AB00000000000000000000000000000000000000000000000000000000000000000024
:2011CB00000000000000000000000000000000000000000000000000000000000000000004
:2011EB000000000000000000000000000000000000000000000000000000000000000000E4
:20120B000000000000000000000000000000000000000000000000000000000000000000C3
:20122B000000000000000000000000000000000000000000000000000000000000000000A3
:20124B00000000000000000000000000000000000000000000000000000000000000000083
:20126B00000000000000000000000000000000000000000000000000000000000000000063
:20128B00000000000000000000000000000000000000000000000000000000000000000043
:2012AB00000000000000000000000000000000000000000000000000000000000000000023
:2012CB00000000000000000000000000000000000000000000000000000000000000000003
:2012EB000000000000000000000000000000000000000000000000000000000000000000E3
:20130B000000000000000000000000000000000000000000000000000000000000000000C2
:20132B000000000000000000000000000000000000000000000000000000000000000000A2
:20134B00000000000000000000000000000000000000000000000000000000000000000082
:20136B00000000000000000000000000000000000000000000000000000000000000000062
:10138B000000000000000000000000000000000052
:200E5C001205B0AF82BF0002801EBF01028029BF02028034BF03028032BF32028030BF3332
:200E7C0002802EBF6331802C7406C0E09010F975F0801204FB158122741DC0E090110075FF
:200E9C00F0801204FB158122020EC3020ED1020EF8020F5C0210537403C0E090111E75F034
:200EBC00801204FB1581221205B0120A351210D9F5820204F51205B0AF82C0071205B0AE14
:200EDC0082D0078F82C006120A35AC82AD83AFF0D0068C828D838FF0EE0210BE1205B0AFD1
:200EFC0082C0071205E6AB82AC83ADF0FED007C003C004C005C0068F82120BD5AF82E58116
:200F1C0024FCF581EFFE60058E820204F5221205B0AF82C0071205B0AE82C0061205E6AA7D
:200F3C0082AB83ACF0FDD006D007C002C003C004C005C0068F82120C7EE58124FBF5812201
:200F5C00C011E581F511240BF5811205B0AF82A81108A6071205B0A8110808A6821205E678
:200F7C00A811080808A68208A68308A6F008F61205B0AE82E5112407F8A6061205E6AB82A9
:200F9C00AC83ADF0FFE5112408F8A60308A60408A60508A6071205B0AA828A07C007E5114C
:200FBC002403F8E6C0E008E6C0E008E6C0E008E6C0E0A8110808E6C0E0A811088682120C90
:200FDC007EE58124FBF581E5112408F8E6C0E008E6C0E008E6C0E008E6C0E0E5112407F819
:200FFC008682120BD5AA82E58124FCF581D0078F06BAAA35EE6032C006120D08E51124081F
:20101C00F8E6C0E008E6C0E008E6C0E008E6C0E0E5112407F88682120BD5AF82E58124FCC2
:20103C00F581D0068F021E80C8EA60058A821204F5851181D01122C011E581F5112404F577
:20105C00811205E6AC82AD83AEF0FFA81108A60408A60508A60608A607A811080808088615
:20107C00078F821204F5A81108080886068E821204F5A811080886058D821204F5A811088A
:0D109C0086048C821204F5851181D011228A
:2010F900434331313131006B65696E65636874657264657574736368657240676D61696C5A
:091119002E636F6D004E2F4100A2
:1510A900758805759800759B0075C00075E800D2AF22C2AF224B
:0600B800E478FFF6D8FD1C
:200096007979E94402601B7A0390112278427593F0E493F2A308B800020593D9F4DAF27548
:0200B60093FFB6
:1B10BE0020F71130F6138883A88220F509F6A8837583002280FEF280F5F02231
:2000BE007800E84400600A79007593F0E4F309D8FC7842E84400600C790190F000E4F0A32C
:0400DE00D8FCD9FA77
:0D00890075813B1210F5E5826003020086D0
:1C10D90020F71430F6148883A88220F507E6A88375830022E280F7E49322E02226
:0410F50075820022DE
:00000001FF
